:020000040800F2
:1000000000C00020D1030008B5030008B7030008B2
:10001000B9030008BB030008BD030008000000008E
:10002000000000000000000000000000BF03000806
:10003000C103000800000000C3030008C503000856
:10004000190400081904000819040008190400081C
:10005000190400081904000819040008190400080C
:1000600019040008190400081904000819040008FC
:1000700019040008190400081904000819040008EC
:1000800019040008190400081904000819040008DC
:1000900019040008190400081904000819040008CC
:1000A00019040008190400081904000819040008BC
:1000B00019040008190400081904000819040008AC
:1000C000190400081904000819040008190400089C
:1000D000190400081904000819040008190400088C
:1000E000190400081904000819040008190400087C
:1000F000190400081904000819040008190400086C
:10010000190400081904000819040008190400085B
:10011000190400081904000819040008190400084B
:10012000190400081904000819040008190400083B
:1001300000000000000000000000000000000000BF
:1001400000000000000000000000000000000000AF
:10015000000000000000000000000000000000009F
:10016000000000000000000000000000000000008F
:10017000000000000000000000000000000000007F
:10018000000000000000000000000000000000006F
:10019000000000000000000000000000000000005F
:1001A000000000000000000000000000000000004F
:1001B000000000000000000000000000000000003F
:1001C000000000000000000000000000000000002F
:1001D000000000000000000000000000000000001F
:0401E0005FF8E0F1F3
:1001E4000348044B834202D0034B03B118477047C2
:1001F4001000002010000020000000000548064BFD
:100204001B1AD90F01EBA301491002D0034B03B110
:100214001847704710000020100000200000000064
:1002240010B5064C237843B9FFF7DAFF044B13B13A
:100234000448AFF300800123237010BD1000002098
:1002440000000000C00F000808B5054B1BB10549AC
:100254000548AFF30080BDE80840FFF7CFBF00BFFB
:100264000000000014000020C00F000830B589B061
:1002740000240494059406940794174B9A6942F059
:1002840020029A619A6902F020020192019A9A6905
:1002940042F008029A619A6902F008020292029AF4
:1002A4009A6942F004029A619B6903F00403039380
:1002B400039B0A4D22460121284600F091FA0123AE
:1002C4000493059306940223079304A9284600F097
:1002D4006BF909B030BD00BF00100240000C0140B2
:1002E40072B6FEE700B591B02822002106A800F0FE
:1002F40085FD002301930293039304930593012244
:1003040006924FF4803307930A9202220D920E93C1
:100314004FF4E0130F9306A800F088FA80B90F2376
:10032400019302210291002303934FF4806204920B
:10033400059301A800F0ACFC20B911B05DF804FBF2
:10034400FFF7CEFFFFF7CCFF08B500F08BF8FFF7FF
:10035400C9FFFFF78BFF0121034800F047FAC820CB
:1003640000F0A4F8F7E700BF000C014082B00E4B88
:100374009A6942F001029A619A6902F001020092BC
:10038400009ADA6942F08052DA61DB6903F0805343
:100394000193019B054A536823F0E06343F0007323
:1003A400536002B0704700BF0010024000000140DB
:1003B400FEE7FEE7FEE7FEE7FEE77047704770479B
:1003C40008B500F061F808BD70470000FFF7FCFFB6
:1003D4000B480C490C4A002302E0D458C45004339F
:1003E400C4188C42F9D3094A094C002301E0136074
:1003F4000432A242FBD300F051FDFFF7A5FF704782
:100404000000002010000020081000081000002048
:10041400C8010020FEE7000010B504460E4B1A7810
:100424004FF47A73B3FBF2F30C4A1068B0FBF3F0A9
:1004340000F0A6F868B90F2C01D901200AE00022C7
:1004440021464FF0FF3000F08BF8054B1C60002074
:1004540000E0012010BD00BF0400002000000020C7
:100464000800002008B5074A136843F0100313601E
:10047400032000F063F80F20FFF7CEFFFFF776FFAD
:10048400002008BD00200240034A1168034B1B787A
:100494000B441360704700BF2C00002004000020B0
:1004A400014B1868704700BF2C00002038B5044683
:1004B400FFF7F6FF0546B4F1FF3F02D0044B1B786B
:1004C4001C44FFF7EDFF401BA042FAD338BD00BF28
:1004D40004000020002808DB0901C9B200F16040D3
:1004E40000F5614080F80013704700F00F00090127
:1004F400C9B2014B1954704714ED00E000B500F087
:100504000700C0F1070CBCF1040F28BF4FF0040C26
:10051400031D062B0FD9C31E4FF0FF3E0EFA0CF03D
:1005240021EA000199400EFA03FE22EA0E0241EA92
:1005340002005DF804FB0023EEE70000074AD368DD
:1005440023F4E0631B041B0C000200F4E06003438B
:1005540043F0BF6343F40033D360704700ED00E021
:1005640010B50446054BD868C0F30220FFF7C6FF58
:1005740001462046FFF7AEFF10BD00BF00ED00E0CE
:100584000138B0F1807F0BD24FF0E0235861054A67
:10059400F02182F823100020986107221A61704725
:1005A4000120704700ED00E070B582B00024A4463D
:1005B400ABE0854DAB4214D00CD8A5F58015AB4209
:1005C4000FD005F57025AB420BD0A5F58015AB42D5
:1005D40010D106E07D4DAB4203D005F58035AB422A
:1005E40008D18B68002B5AD0012B53D042610824C8
:1005F40000E0CC68BEF1FF0F53D806464FEA8C02E8
:1006040033680F25954023EA050304FA02F21343E5
:1006140033604B6813F0805F75D06D4B9A6942F07C
:1006240001029A619B6903F001030193019B4FEA64
:100634009C02951C674B53F825600CF00305AD0034
:100644000F23AB4026EA0306634B984230D003F5F0
:100654008063984200F0968003F58063984200F02E
:10066400938003F58063984200F0908003F58063E3
:10067400984200F08D8003F58063984216D00623DB
:1006840017E0CC680434B5E7CC680834B2E7CC682A
:100694000C34AFE702610824ACE70024AAE7042481
:1006A400A8E7061DACF108029200A9E7052300E0C3
:1006B4000023AB4033430232464D45F822304B68A9
:1006C40013F4801F66D0454A936843EA0E0393608F
:1006D4004B6813F4001F63D0404AD36843EA0E0307
:1006E400D3604B6813F4003F60D03C4A536843EA3C
:1006F4000E0353604B6813F4803F5DD0374A136890
:1007040043EA0E0313600CF1010C0B6833FA0CF28C
:1007140058D0012202FA0CF203EA020E32EA030371
:10072400F1D14B68122B3FF644AF122B3FF662AF68
:1007340001A555F823F000BFE7050008F7050008F8
:100744008D0600089F060008F9050008F905000851
:10075400F9050008F9050008F9050008F90500087D
:10076400F9050008F9050008F9050008F90500086D
:10077400F9050008F9050008F905000887060008CE
:1007840093060008012394E7022392E7032390E7EA
:1007940004238EE7114A936823EA0E03936097E7D4
:1007A4000E4AD36823EA0E03D3609AE70B4A5368D0
:1007B40023EA0E0353609DE7084A136823EA0E03F5
:1007C4001360A0E702B070BD0000221000003110D9
:1007D40000100240000001400008014000040140F4
:1007E4000AB101617047090401617047C36801EAF5
:1007F400030221EA030141EA02410161704700005A
:1008040082B0084B1B68084AA2FB03235B0A00FB67
:1008140003F3019300BF019B5A1E0192002BF9D1EF
:1008240002B0704700000020D34D6210002800F091
:10083400F18170B582B00446036813F0010F2CD027
:10084400994B5B6803F00C03042B1DD0964B5B683B
:1008540003F00C03082B12D06368B3F5803F41D03A
:10086400002B55D103F1804303F504331A6822F4B5
:1008740080321A601A6822F480221A6037E08A4BA8
:100884005B6813F4803FE7D0874B1B6813F4003F89
:1008940003D06368002B00F0BF81236813F0020FBC
:1008A40075D0814B5B6813F00C0F5FD07E4B5B6897
:1008B40003F00C03082B54D02369002B00F08A802A
:1008C4007A4B01221A60FFF7EBFD0546764B1B6855
:1008D40013F0020F75D1FFF7E3FD401B0228F5D991
:1008E40003209EE1704A136843F480331360636805
:1008F40043B3FFF7D5FD05466B4B1B6813F4003F6C
:10090400CBD1FFF7CDFD401B6428F5D9032088E146
:10091400B3F5A02F09D0644B1A6822F480321A6010
:100924001A6822F480221A60E1E703F18043A3F5F8
:100934003C331A6842F480221A601A6842F4803206
:100944001A60D4E7FFF7ACFD0546574B1B6813F458
:10095400003FA2D0FFF7A4FD401B6428F5D9032073
:100964005FE1514B5B6813F4803FA5D14E4B1B688C
:1009740013F0020F03D02369012B40F04F814A4A40
:10098400136823F0F803616943EAC1031360236821
:1009940013F0080F33D0A369002B5CD0434B012222
:1009A400C3F88024FFF77CFD05463F4B5B6A13F0D8
:1009B400020F21D1FFF774FD401B0228F5D9032053
:1009C4002FE1394A136823F0F803616943EAC1034C
:1009D4001360DCE7354B00221A60FFF761FD054622
:1009E400314B1B6813F0020FD1D0FFF759FD401BA8
:1009F4000228F5D9032014E10120FFF701FF236841
:100A040013F0040F00F09680274BDB6913F0805F2E
:100A140034D1254BDA6942F08052DA61DB6903F0A4
:100A240080530193019B0125214B1B6813F4807FA4
:100A340026D0E368012B3DD0002B53D103F1804332
:100A440003F504331A6A22F001021A621A6A22F0C8
:100A540004021A6233E0154B0022C3F88024FFF726
:100A64001FFD0546104B5B6A13F0020FC7D0FFF75A
:100A740017FD401B0228F5D90320D2E00025D3E757
:100A84000B4A136843F480731360FFF709FD0646AD
:100A9400074B1B6813F4807FCBD1FFF701FD801B4C
:100AA4006428F5D90320BCE0001002400000424253
:100AB400007000405F4A136A43F001031362E36865
:100AC40033B3FFF7EDFC06465A4B1B6A13F0020FD3
:100AD4002FD1FFF7E5FC801B41F288339842F3D90C
:100AE40003209EE0052B09D0524B1A6A22F0010222
:100AF4001A621A6A22F004021A62E0E74D4B1A6A7B
:100B040042F004021A621A6A42F001021A62D6E73B
:100B1400FFF7C6FC0646474B1B6A13F0020F08D0CA
:100B2400FFF7BEFC801B41F288339842F3D90320BF
:100B340077E0E5B9E369002B72D03E4A526802F0CF
:100B44000C02082A56D0022B17D03B4B00221A66FF
:100B5400FFF7A6FC0446374B1B6813F0007F47D011
:100B6400FFF79EFC001B0228F5D9032059E0314A07
:100B7400D36923F08053D361DCE72F4B00221A663C
:100B8400FFF78EFC05462B4B1B6813F0007F06D045
:100B9400FFF786FC401B0228F5D9032041E0236AB5
:100BA400B3F5803F1AD023494B6823F47413226AA7
:100BB400606A024313434B601F4B01221A66FFF71E
:100BC4006FFC04461B4B1B6813F0007F0ED1FFF72C
:100BD40067FC001B0228F5D9032022E0154A53685C
:100BE40023F40033A1680B435360DCE7002018E0D2
:100BF400002016E0012B16D00E4B5B6803F4803105
:100C0400226A914211D103F47013626A93420ED1A5
:100C1400002006E001207047012002E0012000E0EE
:100C2400002002B070BD0120FBE70120F9E701209C
:100C3400F7E700BF00100240000042420F4B5B6820
:100C440003F00C02082A01D00D487047C3F3834215
:100C54000C49885C13F4803F0BD0084B5B68C3F3EA
:100C64004043094AD35C064A02FB00F0B0FBF3F0B0
:100C74007047064B03FB00F0704700BF00100240B2
:100C840000127A00EC0F0008E80F000800093D008C
:100C9400002800F0A08070B50D460446524B1B6836
:100CA40003F007038B420BD24F4A136823F0070368
:100CB4000B431360136803F007038B4240F08D80ED
:100CC400236813F0020F17D013F0040F04D0474A1F
:100CD400536843F4E0635360236813F0080F04D0AF
:100CE400424A536843F460535360404A536823F0C4
:100CF400F003A1680B435360236813F0010F31D054
:100D04006368012B20D0022B25D0384A126812F0D8
:100D1400020F64D035494A6822F0030213434B6042
:100D2400FFF7BEFB0646314B5B6803F00C036268B9
:100D3400B3EB820F16D0FFF7B3FB801B41F288336D
:100D44009842F0D9032045E0284A126812F4003F83
:100D5400E0D101203EE0254A126812F0007FD9D18B
:100D6400012037E0204B1B6803F00703AB420AD98C
:100D74001D4A136823F007032B431360136803F021
:100D84000703AB422DD1236813F0040F06D0174A92
:100D9400536823F4E063E1680B435360236813F062
:100DA400080F07D0114A536823F46053216943EABA
:100DB400C1035360FFF742FF0C4B5B68C3F303139B
:100DC4000B4AD35CD8400B4B18600B4B1868FFF7E9
:100DD40023FB002070BD012070470120FAE70120A9
:100DE400F8E70120F6E700BF0020024000100240AF
:100DF400D80F0008000000200800002070B5860706
:100E040047D0541E002A3ED00346CAB201E0013C3A
:100E140039D303F8012B9D07F9D1032C2CD9CDB27A
:100E240005EB05250F2C1A4605EB054534D9A4F12D
:100E3400100C2CF00F0603F1100EB6444FEA1C1CE4
:100E4400C2E90055C2E9025510327245F8D10CF1DD
:100E5400010214F00C0F03EB021204F00F0C13D078
:100E6400ACF1040323F003030433134442F8045B9A
:100E74009342FBD10CF003042CB1C9B21C4403F817
:100E8400011BA342FBD170BD64461346002CF4D170
:100E9400F9E703461446C0E7A446E1E770B50F4BF3
:100EA4000F4DAB42A3EB050607D00024B61055F84E
:100EB400043B01349847A642F9D800F07FF8094D65
:100EC400094B5E1BAB424FEAA60606D0002455F838
:100ED400043B01349847A642F9D870BDFC0F0008C2
:100EE400FC0F0008FC0F000804100008704700BF46
:100EF400704700BF024B13B1024800F005B87047B9
:100F040000000000190F0008002301461A46184685
:100F140000F014B838B5074D074C2C1BA41005D0AD
:100F2400013C55F8043D9847002CF9D1BDE8384000
:100F340000F04AB808100008041000082DE9F8432E
:100F44001B4D0646286898460F469146FFF7CEFF8C
:100F5400184B1C681CB3286865681F2D22DC4EB929
:100F64006B1C0235636044F82570FFF7C1FF002055
:100F7400BDE8F883012304EB8501C1F88890D4F817
:100F84008821AB401A43022EC4F88821C1F8088195
:100F9400E6D1D4F88C211A43C4F88C21E0E7064C3E
:100FA4001C60D8E7FFF7A4FF4FF0FF30E0E700BF75
:100FB4000C0000203400002038000020F8B500BFE9
:100FC400F8BC08BC9E467047F8B500BFF8BC08BC26
:040FD4009E4670477E
:100FD80000000000000000000102030406070809E1
:100FE8000102000002030405060708090A0B0C0D9C
:040FF8000E0F1010B8
:080FFC00F90E00084D02000887
:0410040025020008B9
:101008000024F4000100000010000000300000205F
:04000005080003D11B
:00000001FF
