:020000040800F2
:1000000000C00020151A0008911800089318000875
:1000100095180008971800089918000800000000BB
:100020000000000000000000000000009B18000815
:100030009D180008000000009F180008A118000883
:100040005D1A00085D1A00085D1A00085D1A0008B4
:100050005D1A00085D1A00085D1A00085D1A0008A4
:100060005D1A00085D1A00085D1A00085D1A000894
:100070005D1A00085D1A00085D1A00085D1A000884
:100080005D1A00085D1A00085D1A00085D1A000874
:100090005D1A00085D1A00085D1A00085D1A000864
:1000A0005D1A00085D1A00085D1A00085D1A000854
:1000B0005D1A00085D1A00085D1A00085D1A000844
:1000C0005D1A00085D1A00085D1A00085D1A000834
:1000D0005D1A00085D1A00085D1A00085D1A000824
:1000E0005D1A00085D1A00085D1A00085D1A000814
:1000F0005D1A00085D1A00085D1A00085D1A000804
:100100005D1A00085D1A00085D1A00085D1A0008F3
:100110005D1A00085D1A00085D1A00085D1A0008E3
:100120005D1A00085D1A00085D1A00085D1A0008D3
:1001300000000000000000000000000000000000BF
:1001400000000000000000000000000000000000AF
:10015000000000000000000000000000000000009F
:10016000000000000000000000000000000000008F
:10017000000000000000000000000000000000007F
:10018000000000000000000000000000000000006F
:10019000000000000000000000000000000000005F
:1001A000000000000000000000000000000000004F
:1001B000000000000000000000000000000000003F
:1001C000000000000000000000000000000000002F
:1001D000000000000000000000000000000000001F
:0401E0005FF8E0F1F3
:1001E80081F0004102E000BF83F0004330B54FEAE0
:1001F80041044FEA430594EA050F08BF90EA020F4D
:100208001FBF54EA000C55EA020C7FEA645C7FEADF
:10021800655C00F0E2804FEA5454D4EB5555B8BF02
:100228006D420CDD2C4480EA020281EA030382EA73
:10023800000083EA010180EA020281EA0303362D05
:1002480088BF30BD11F0004F4FEA01314FF4801CD8
:100258004CEA113102D0404261EB410113F0004FEA
:100268004FEA03334CEA133302D0524263EB4303A1
:1002780094EA050F00F0A780A4F10104D5F1200E3F
:100288000DDB02FA0EFC22FA05F2801841F100019A
:1002980003FA0EF2801843FA05F359410EE0A5F16E
:1002A80020050EF1200E012A03FA0EFC28BF4CF09F
:1002B800020C43FA05F3C01851EBE37101F0004555
:1002C80007D54FF0000EDCF1000C7EEB00006EEB62
:1002D8000101B1F5801F1BD3B1F5001F0CD34908EC
:1002E8005FEA30004FEA3C0C04F101044FEA445243
:1002F80012F5800F80F09A80BCF1004F08BF5FEACA
:10030800500C50F1000041EB045141EA050130BDA9
:100318005FEA4C0C404141EB0101013C28BFB1F5BB
:10032800801FE9D291F0000F04BF01460020B1FA06
:1003380081F308BF2033A3F10B03B3F120020CDAD9
:100348000C3208DD02F1140CC2F10C0201FA0CF0B7
:1003580021FA02F10CE002F11402D8BFC2F1200C1C
:1003680001FA02F120FA0CFCDCBF41EA0C019040D2
:10037800E41AA2BF01EB0451294330BD6FEA04041B
:100388001F3C1CDA0C340EDC04F11404C4F1200206
:1003980020FA04F001FA02F340EA030021FA04F318
:1003A80045EA030130BDC4F10C04C4F1200220FA6F
:1003B80002F001FA04F340EA0300294630BD21FAAD
:1003C80004F0294630BD94F0000F83F4801306BF73
:1003D80081F480110134013D4EE77FEA645C18BF67
:1003E8007FEA655C29D094EA050F08BF90EA020FFE
:1003F80005D054EA000C04BF1946104630BD91EAF6
:10040800030F1EBF0021002030BD5FEA545C05D1F8
:100418004000494128BF41F0004130BD14F5800437
:100428003CBF01F5801130BD01F0004545F0FE41AB
:1004380041F470014FF0000030BD7FEA645C1ABFE0
:10044800194610467FEA655C1CBF0B46024650EA17
:10045800013406BF52EA033591EA030F41F4002143
:1004680030BD00BF90F0000F04BF0021704730B5C9
:100478004FF4806404F132044FF000054FF000019E
:1004880050E700BF90F0000F04BF0021704730B55F
:100498004FF4806404F1320410F0004548BF404234
:1004A8004FF000013EE700BF42004FEAE2014FEA89
:1004B80031014FEA02701FBF12F07F4393F07F4F64
:1004C80081F06051704732F07F4208BF704793F067
:1004D8007F4F04BF41F40021704730B54FF460747A
:1004E80001F0004521F000411CE700BF50EA01027D
:1004F80008BF704730B54FF000050AE050EA010226
:1005080008BF704730B511F0004502D5404261EB95
:1005180041014FF4806404F132045FEA915C3FF4D6
:10052800D8AE4FF003025FEADC0C18BF03325FEA73
:10053800DC0C18BF033202EBDC02C2F1200300FA24
:1005480003FC20FA02F001FA03FE40EA0E0021FA49
:1005580002F11444BDE600BF70B54FF0FF0C4CF437
:10056800E06C1CEA11541DBF1CEA135594EA0C0FE9
:1005780095EA0C0F00F0DEF82C4481EA030621EA24
:100588004C5123EA4C5350EA013518BF52EA03355F
:1005980041F4801143F4801338D0A0FB02CE4FF011
:1005A8000005E1FB02E506F00042E0FB03E54FF041
:1005B8000006E1FB03569CF0000F18BF4EF0010E39
:1005C800A4F1FF04B6F5007F64F5407404D25FEA35
:1005D8004E0E6D4146EB060642EAC62141EA5551E8
:1005E8004FEAC52040EA5E504FEACE2EB4F1FD0C2A
:1005F80088BFBCF5E06F1ED8BEF1004F08BF5FEAA8
:10060800500E50F1000041EB045170BD06F0004659
:1006180046EA010140EA020081EA0301B4EB5C0406
:10062800C2BFD4EB0C0541EA045170BD41F48011FE
:100638004FF0000E013C00F3AB8014F1360FDEBF23
:10064800002001F0004170BDC4F10004203C35DAFF
:100658000C341BDC04F11404C4F1200500FA05F382
:1006680020FA04F001FA05F240EA020001F0004223
:1006780021F0004110EBD37021FA04F642EB060199
:100688005EEA430E08BF20EAD37070BDC4F10C04C3
:10069800C4F1200500FA04F320FA05F001FA04F287
:1006A80040EA020001F0004110EBD37041F1000173
:1006B8005EEA430E08BF20EAD37070BDC4F120057E
:1006C80000FA05F24EEA020E20FA04F301FA05F2E6
:1006D80043EA020321FA04F001F0004121FA04F28E
:1006E80020EA020000EBD3705EEA430E08BF20EA5E
:1006F800D37070BD94F0000F0FD101F00046400098
:1007080041EB010111F4801F08BF013CF7D041EA19
:10071800060195F0000F18BF704703F0004652001D
:1007280043EB030313F4801F08BF013DF7D043EAEE
:100738000603704794EA0C0F0CEA135518BF95EAA4
:100748000C0F0CD050EA410618BF52EA4306D1D12B
:1007580081EA030101F000414FF0000070BD50EA4A
:10076800410606BF1046194652EA430619D094EAD4
:100778000C0F02D150EA013613D195EA0C0F05D1BE
:1007880052EA03361CBF104619460AD181EA030112
:1007980001F0004141F0FE4141F470014FF00000CA
:1007A80070BD41F0FE4141F4780170BD70B54FF065
:1007B800FF0C4CF4E06C1CEA11541DBF1CEA1355E5
:1007C80094EA0C0F95EA0C0F00F0A7F8A4EB0504C7
:1007D80081EA030E52EA03354FEA013100F08880BE
:1007E8004FEA03334FF0805545EA131343EA126387
:1007F8004FEA022245EA111545EA10654FEA00263C
:100808000EF000419D4208BF964244F1FD0404F5F4
:10081800407402D25B084FEA3202B61A65EB030550
:100828005B084FEA32024FF480104FF4002CB6EB0D
:10083800020E75EB030E22BFB61A754640EA0C008D
:100848005B084FEA3202B6EB020E75EB030E22BFCD
:10085800B61A754640EA5C005B084FEA3202B6EB0E
:10086800020E75EB030E22BFB61A754640EA9C00CD
:100878005B084FEA3202B6EB020E75EB030E22BF9D
:10088800B61A754640EADC0055EA060E18D04FEA5B
:10089800051545EA16754FEA06164FEAC30343EAFB
:1008A80052734FEAC2025FEA1C1CC0D111F4801FC8
:1008B8000BD141EA00014FF000004FF0004CB6E7C1
:1008C80011F4801F04BF01430020B4F1FD0C88BF60
:1008D800BCF5E06F3FF6AFAEB5EB030C04BFB6EB6B
:1008E800020C5FEA500C50F1000041EB045170BD5E
:1008F8000EF0004E4EEA113114EB5C04C2BFD4EB8B
:100908000C0541EA045170BD41F480114FF0000E0E
:10091800013C90E645EA060E8DE60CEA135594EA8A
:100928000C0F08BF95EA0C0F3FF43BAF94EA0C0F8D
:100938000AD150EA01347FF434AF95EA0C0F7FF402
:1009480025AF104619462CE795EA0C0F06D152EA56
:1009580003353FF4FDAE1046194622E750EA41063A
:1009680018BF52EA43067FF4C5AE50EA41047FF44B
:100978000DAF52EA43057FF4EBAE12E74FEA4102AE
:10098800B2F1E04324BFB3F5001CDCF1FE5C0DD9E5
:1009980001F0004C4FEAC0024CEA5070B2F1004F2F
:1009A80040EB830008BF20F00100704711F0804F32
:1009B80021D113F13872BCBF01F00040704741F4F7
:1009C80080114FEA5252C2F11802C2F1200C10FAFB
:1009D8000CF320FA02F018BF40F001004FEAC123DF
:1009E8004FEAD32303FA0CFC40EA0C0023FA02F383
:1009F8004FEA4303CCE77FEA625307D150EA013359
:100A08001EBF4FF0FE4040F44000704701F0004028
:100A180040F0FE4040F40000704700BF80F0004006
:100A280002E000BF81F0004142001FBF5FEA4103BE
:100A380092EA030F7FEA226C7FEA236C6AD04FEABE
:100A48001262D2EB1363C1BFD21841404840414003
:100A5800B8BF5B42192B88BF704710F0004F40F4B5
:100A6800000020F07F4018BF404211F0004F41F4D1
:100A7800000121F07F4118BF494292EA030F3FD09D
:100A8800A2F1010241FA03FC10EB0C00C3F12003B0
:100A980001FA03F100F0004302D5494260EB40003F
:100AA800B0F5000F13D3B0F1807F06D340084FEAAA
:100AB800310102F10102FE2A51D2B1F1004F40EB9F
:100AC800C25008BF20F0010040EA03007047490007
:100AD80040EB0000013A28BFB0F5000FEDD2B0FAA4
:100AE80080FCACF1080CB2EB0C0200FA0CF0AABFC7
:100AF80000EBC25052421843BCBFD0401843704765
:100B080092F0000F81F4000106BF80F4000001326A
:100B1800013BB5E74FEA41037FEA226C18BF7FEA41
:100B2800236C21D092EA030F04D092F0000F08BF83
:100B38000846704790EA010F1CBF0020704712F06A
:100B48007F4F04D1400028BF40F00040704712F1A9
:100B580000723CBF00F50000704700F0004343F00E
:100B6800FE4040F4000070477FEA226216BF084644
:100B78007FEA23630146420206BF5FEA412390EA07
:100B8800010F40F4800070474FF0000304E000BFFD
:100B980010F0004348BF40425FEA000C08BF7047AE
:100BA80043F0964301464FF000001CE050EA010272
:100BB80008BF70474FF000030AE000BF50EA010287
:100BC80008BF704711F0004302D5404261EB410174
:100BD8005FEA010C02BF84460146002043F0B64399
:100BE80008BFA3F18053A3F50003BCFA8CF2083ABE
:100BF800A3EBC25310DB01FA02FC634400FA02FCC7
:100C0800C2F12002BCF1004F20FA02F243EB0200CD
:100C180008BF20F00100704702F1200201FA02FC2F
:100C2800C2F1200250EA4C0021FA02F243EB020022
:100C380008BF20EADC7070474FF0FF0C1CEAD05266
:100C48001EBF1CEAD15392EA0C0F93EA0C0F6FD027
:100C58001A4480EA010C400218BF5FEA41211ED005
:100C68004FF0006343EA501043EA5111A0FB0131F1
:100C78000CF00040B1F5000F3EBF490041EAD371C6
:100C88005B0040EA010062F17F02FD2A1DD8B3F142
:100C9800004F40EBC25008BF20F00100704790F0B1
:100CA800000F0CF0004C08BF49024CEA502040EA03
:100CB80051207F3AC2BFD2F1FF0340EAC2507047C9
:100CC80040F400004FF00003013A5DDC12F1190F07
:100CD800DCBF00F000407047C2F10002410021FA79
:100CE80002F1C2F1200200FA02FC5FEA310040F191
:100CF800000053EA4C0308BF20EADC70704792F00A
:100D0800000F00F0004C02BF400010F4000F013A41
:100D1800F9D040EA0C0093F0000F01F0004C02BF3C
:100D2800490011F4000F013BF9D041EA0C018FE7AB
:100D38000CEAD15392EA0C0F18BF93EA0C0F0AD0B1
:100D480030F0004C18BF31F0004CD8D180EA0100D7
:100D580000F00040704790F0000F17BF90F0004F70
:100D6800084691F0000F91F0004F14D092EA0C0F52
:100D780001D142020FD193EA0C0F03D14B0218BFE5
:100D8800084608D180EA010000F0004040F0FE402B
:100D980040F40000704740F0FE4040F440007047C7
:100DA8004FF0FF0C1CEAD0521EBF1CEAD15392EA46
:100DB8000C0F93EA0C0F69D0A2EB030280EA010C36
:100DC80049024FEA402037D04FF0805343EA1111CF
:100DD80043EA10130CF000408B4238BF5B0042F12D
:100DE8007D024FF4000C8B4224BF5B1A40EA0C00D2
:100DF800B3EB510F24BFA3EB510340EA5C00B3EB04
:100E0800910F24BFA3EB910340EA9C00B3EBD10FF1
:100E180024BFA3EBD10340EADC001B0118BF5FEA43
:100E28001C1CE0D1FD2A3FF650AF8B4240EBC2506C
:100E380008BF20F0010070470CF0004C4CEA50202D
:100E48007F32C2BFD2F1FF0340EAC250704740F47C
:100E580000004FF00003013A37E792F0000F00F06E
:100E6800004C02BF400010F4000F013AF9D040EAEC
:100E78000C0093F0000F01F0004C02BF490011F480
:100E8800000F013BF9D041EA0C0195E70CEAD15378
:100E980092EA0C0F08D142027FF47DAF93EA0C0F5F
:100EA8007FF470AF084676E793EA0C0F04D14B0243
:100EB8003FF44CAF08466EE730F0004C18BF31F0F5
:100EC800004CCAD130F000427FF45CAF31F00043EF
:100ED8007FF43CAF5FE700BF4FF0FF3C06E000BF88
:100EE8004FF0010C02E000BF4FF0010C4DF804CDAB
:100EF8004FEA40024FEA41037FEA226C18BF7FEABB
:100F0800236C11D001B052EA530C18BF90EA010FBC
:100F180058BFB2EB030088BFC81738BF6FEAE1704B
:100F280018BF40F0010070477FEA226C02D15FEAE7
:100F3800402C05D17FEA236CE4D15FEA412CE1D053
:100F48005DF8040B704700BF844608466146FFE71A
:100F58000FB5FFF7C9FF002848BF10F1000F0FBDFC
:100F68004DF808EDFFF7F4FF0CBF012000205DF8F5
:100F780008FB00BF4DF808EDFFF7EAFF34BF01207A
:100F880000205DF808FB00BF4DF808EDFFF7E0FF13
:100F980094BF012000205DF808FB00BF4DF808ED64
:100FA800FFF7D2FF94BF012000205DF808FB00BFC7
:100FB8004DF808EDFFF7C8FF34BF012000205DF8A9
:100FC80008FB00BF4FEA4002B2F1FE4F0FD34FF0CB
:100FD8009E03B3EB12620DD94FEA002343F000439E
:100FE80010F0004F23FA02F018BF404270474FF04C
:100FF8000000704712F1610F01D1420205D110F0D3
:10100800004008BF6FF0004070474FF00000704785
:1010180042000ED2B2F1FE4F0BD34FF09E03B3EB5A
:10102800126209D44FEA002343F0004323FA02F086
:1010380070474FF00000704712F1610F01D1420272
:1010480002D14FF0FF3070474FF00000704700BFEB
:101058007BB972B90029BEBF00204FF0004106E0FD
:1010680008BF00281CBF6FF000414FF0FF3000F0B0
:101078003FB8ADF1080C6DE904CE002909DB002B5F
:101088001ADB05F03BFEDDF804E0DDE9022304B0DD
:101098007047404261EB4101002B1BDB05F02EFE3F
:1010A800DDF804E0DDE9022304B0404261EB4101D0
:1010B800524263EB43037047524263EB430305F02C
:1010C8001DFEDDF804E0DDE9022304B0404261EBD7
:1010D80041017047524263EB430305F00FFEDDF810
:1010E80004E0DDE9022304B0524263EB4303704796
:1010F800704700BF844641EA000313F0030349D157
:10110800403A23D30B6803604B6843608B68836065
:10111800CB68C3600B6903614B6943618B69836169
:10112800CB69C3610B6A03624B6A43628B6A836251
:10113800CB6AC3620B6B03634B6B43638B6B836339
:10114800CB6BC36340304031403ADBD230320BD3F3
:101158000B6803604B6843608B688360CB68C3602F
:1011680010301031103AF3D20C3205D351F8043B49
:1011780040F8043B043AF9D2043208D0D2071CBF25
:1011880011F8013B00F8013B01D30B88038060464E
:10119800704700BF082A13D38B07B1D010F00303A0
:1011A800AED0C3F10403D21ADB071CBF11F8013B10
:1011B80000F8013BA4D331F8023B20F8023B9FE73B
:1011C800043AD9D3013A11F8013B00F8013BF9D2AE
:1011D8000B7803704B7843708B7883706046704748
:1011E8004FF0FF3C06E000BF4FF0010C02E000BFEB
:1011F8004FF0010C4DF804CD4FEA410C7FEA6C5CCE
:101208004FEA430C18BF7FEA6C5C1BD001B050EA70
:10121800410C0CBF52EA430C91EA030F02BF90EA5B
:10122800020F0020704710F1000F91EA030F58BF1A
:10123800994208BF90422CBFD8176FEAE37040F07C
:10124800010070474FEA410C7FEA6C5C02D150EA1A
:10125800013C07D14FEA430C7FEA6C5CD6D152EAD5
:10126800033CD3D05DF8040B704700BF844610469A
:1012780062468C461946634600E000BF01B5FFF799
:10128800B7FF002848BF10F1000F01BD4DF808ED69
:10129800FFF7F4FF0CBF012000205DF808FB00BF3A
:1012A8004DF808EDFFF7EAFF34BF012000205DF894
:1012B80008FB00BF4DF808EDFFF7E0FF94BF0120E1
:1012C80000205DF808FB00BF4DF808EDFFF7CEFFE2
:1012D80094BF012000205DF808FB00BF4DF808ED21
:1012E800FFF7C4FF34BF012000205DF808FB00BFF2
:1012F8004FEA410C7FEA6C5C02D150EA013C0AD10A
:101308004FEA430C7FEA6C5C02D152EA033C02D1FB
:101318004FF0000070474FF0010070474FEA41025C
:1013280012F5001215D211D56FF47873B3EB62522F
:1013380012D94FEAC12343F0004343EA505311F056
:10134800004F23FA02F018BF404270474FF00000E8
:10135800704750EA013005D111F0004008BF6FF026
:10136800004070474FF00000704700BF0348044B2F
:10137800834202D0034B03B1184770473C07002053
:101388003C070020000000000548064B1B1AD90F37
:1013980001EBA301491002D0034B03B11847704772
:1013A8003C0700203C0700200000000010B5064C58
:1013B800237843B9FFF7DAFF044B13B10448AFF3BE
:1013C80000800123237010BD3C07002000000000AE
:1013D80048DC000808B5054B1BB105490548AFF3C3
:1013E8000080BDE80840FFF7CFBF00BF0000000045
:1013F8004007002048DC00082DE9F04389B00024AC
:101408000494059406940794344B9A6942F0200298
:101418009A619A6902F020020092009A9A6942F051
:1014280010029A619A6902F010020192019A9A696F
:1014380042F008029A619A6902F008020292029A3E
:101448009A6942F004029A619B6903F004030393CA
:10145800039BDFF88C9022462021484600F0E0FCF0
:10146800204E01221146304600F0DAFC22461221B5
:10147800304600F0D5FCDFF8708022464FF48071CA
:10148800404600F0CDFC20230493012505950694E1
:101498000327079704A9484600F0A6FB049505957D
:1014A80006950223079304A9304600F09DFB1223FA
:1014B800049305950694079704A9304600F094FB19
:1014C8004FF48073049305950694079704A9404642
:1014D80000F08AFB09B0BDE8F08300BF00100240AD
:1014E80000100140000C01400008014008B50B48FD
:1014F8000B4B03600B4B436000238360C3604FF4C6
:101508008042026143618361C361036200F018FF96
:1015180000B908BD00F03AF8FBE700BF5807002003
:1015280000580040A086010010B586B00023029341
:101538000393049305930268114B9A4201D006B0B5
:1015480010BD104CA36943F00803A361A36903F01D
:1015580008030093009B4FF4406302931223039304
:101568000323059302A9084800F03EFBE36943F40E
:101578008003E361E36903F480030193019BDEE7E1
:101588000058004000100240000C014072B6FEE70F
:1015980000B591B02822002106A805F08DFE002391
:1015A80001930293039304930593012206924FF447
:1015B800803307930A9202220D920E934FF4E013A0
:1015C8000F9306A801F006FA80B90F2301930221B0
:1015D8000291002303934FF480620492059301A8BB
:1015E80001F02AFC20B911B05DF804FBFFF7CEFF2B
:1015F800FFF7CCFF000000002DE9F04385B000F0B4
:1016080051FAFFF7C5FFFFF7F7FEFFF76FFF00F08E
:10161800A7F900F0C3F803F0BDFB05F0DFF94FF6BA
:10162800FF730093F0231A460021084604F0B8FC23
:101638004F4801F0A7FF002632E005EB8501C900FD
:10164800783189B204EB8400C00080B2494B009322
:1016580028231A4605F04AF90134E4B2052CECD9DE
:101668000135EDB2022D01D80024F7E705F0D4FAD0
:10167800414B1868FEF718FF04460D463F4B1868A3
:10168800FEF712FFCDE902013D4B1868FEF70CFF8B
:10169800CDE9000122462B463A493B4801F090FF2C
:1016A80000250295202301934FF6FF7400944FF410
:1016B8007843364A2946284604F0FAFE0295102750
:1016C800019700944FF47843314A2821284605F0C1
:1016D8002FF8029701944FF47848CDF8008003233F
:1016E800F0222821302005F051F8DFF8A890029563
:1016F8000197009443464A462821502005F018F8DF
:1017080002970194CDF800800323F022282180203D
:1017180005F03CF802950197009443464A46282173
:10172800502005F005F802950197009443461A4A9F
:101738004621284604F0FCFF02970194CDF800806A
:10174800042332464621802005F074F83046FEF71F
:10175800ABFE05A3D3E90023FEF748FDFFF70EF91A
:1017680006467FE7AFF30080295C8FC2F528BC3FAF
:1017780060DC000890DE00083009002028090020FD
:101788002C0900209CDC00080808002068DC000800
:1017980078DC000880DC000888DC000808B50E4802
:1017A8000E4B03604FF48273436000238360C36071
:1017B8000222026143614FF400728261C3610362D5
:1017C800436283620A23C36201F088FC00B908BD42
:1017D800FFF7DCFEFBE700BFAC0700200038004045
:1017E80000B587B00023029303930493059302681E
:1017F800124B9A4202D007B05DF804FB03F5EC33B4
:10180800DA6942F48042DA61DA6902F480420092CD
:10181800009A9A6942F008029A619B6903F00803EA
:101828000193019B4FF42043029302230393032364
:10183800059302A9024800F0D7F9DCE70038004018
:10184800000C014082B00E4B9A6942F001029A6185
:101858009A6902F001020092009ADA6942F0805215
:10186800DA61DB6903F080530193019B054A5368F1
:1018780023F0E06343F00073536002B0704700BF89
:101888000010024000000140FEE7FEE7FEE7FEE729
:10189800FEE770477047704708B500F015F908BDB6
:1018A8000120704708B505F0ABFD162303604FF023
:1018B800FF3008BD08B54FF0FF31FFF7F3FFFEE733
:1018C80070B50C461646002506E0AFF300802146A9
:1018D80001F8010B01350C46B542F6DB304670BD08
:1018E80070B50C461646002504E014F8010BAFF35A
:1018F80000800135B542F8DB304670BD4FF0FF304F
:1019080070474FF400534B60002070470120704728
:101918000020704710B503460C4A0D490D48006871
:1019280040B10C4800680344521A934206D8094A49
:10193800136010BD0748084C0460F2E705F060FD2D
:101948000C2303604FF0FF30F3E700BF00C0002016
:101958000004000004080020480C00207047000024
:1019680008B50A480A4B03604FF4E133436000238B
:101978008360C36003610C2242618361C36101F02B
:1019880071FD00B908BDFFF701FEFBE7080800205C
:101998000038014010B586B00023029303930493E6
:1019A80005930268174B9A4201D006B010BD03F5A3
:1019B80058439A6942F480429A619A6902F48042D3
:1019C8000092009A9A6942F004029A619B6903F0B6
:1019D80004030193019B4FF40073029302230393C2
:1019E80003230593084C02A9204600F0FDF84FF4A4
:1019F8008063029300230393049302A9204600F016
:101A0800F3F8D2E70038014000080140FFF7A6FFCD
:101A18000B480C490C4A002302E0D458C450043344
:101A2800C4188C42F9D3094A094C002301E0136019
:101A38000432A242FBD305F0E9FCFFF7DDFD704755
:101A4800000000203C070020843301083C070020E8
:101A5800480C0020FEE7000010B504460E4B1A782B
:101A68004FF47A73B3FBF2F30C4A1068B0FBF3F04F
:101A780000F0A6F868B90F2C01D901200AE000226D
:101A880021464FF0FF3000F08BF8054B1C6000201A
:101A980000E0012010BD00BF04000020000000206D
:101AA8000800002008B5074A136843F010031360C4
:101AB800032000F063F80F20FFF7CEFFFFF7C2FE08
:101AC800002008BD00200240034A1168034B1B7820
:101AD8000B441360704700BF50080020040000202A
:101AE800014B1868704700BF5008002038B50446FD
:101AF800FFF7F6FF0546B4F1FF3F02D0044B1B7811
:101B08001C44FFF7EDFF401BA042FAD338BD00BFCD
:101B180004000020002808DB0901C9B200F1604078
:101B280000F5614080F80013704700F00F000901CC
:101B3800C9B2014B1954704714ED00E000B500F02C
:101B48000700C0F1070CBCF1040F28BF4FF0040CCC
:101B5800031D062B0FD9C31E4FF0FF3E0EFA0CF0E3
:101B680021EA000199400EFA03FE22EA0E0241EA38
:101B780002005DF804FB0023EEE70000074AD36883
:101B880023F4E0631B041B0C000200F4E060034331
:101B980043F0BF6343F40033D360704700ED00E0C7
:101BA80010B50446054BD868C0F30220FFF7C6FFFE
:101BB80001462046FFF7AEFF10BD00BF00ED00E074
:101BC8000138B0F1807F0BD24FF0E0235861054A0D
:101BD800F02182F823100020986107221A617047CB
:101BE8000120704700ED00E070B582B00024A446E3
:101BF800ABE0854DAB4214D00CD8A5F58015AB42AF
:101C08000FD005F57025AB420BD0A5F58015AB427A
:101C180010D106E07D4DAB4203D005F58035AB42CF
:101C280008D18B68002B5AD0012B53D0426108246D
:101C380000E0CC68BEF1FF0F53D806464FEA8C028D
:101C480033680F25954023EA050304FA02F213438B
:101C580033604B6813F0805F75D06D4B9A6942F022
:101C680001029A619B6903F001030193019B4FEA0A
:101C78009C02951C674B53F825600CF00305AD00DA
:101C88000F23AB4026EA0306634B984230D003F596
:101C98008063984200F0968003F58063984200F0D4
:101CA800938003F58063984200F0908003F5806389
:101CB800984200F08D8003F58063984216D0062381
:101CC80017E0CC680434B5E7CC680834B2E7CC68D0
:101CD8000C34AFE702610824ACE70024AAE7042427
:101CE800A8E7061DACF108029200A9E7052300E069
:101CF8000023AB4033430232464D45F822304B684F
:101D080013F4801F66D0454A936843EA0E03936034
:101D18004B6813F4001F63D0404AD36843EA0E03AC
:101D2800D3604B6813F4003F60D03C4A536843EAE1
:101D38000E0353604B6813F4803F5DD0374A136835
:101D480043EA0E0313600CF1010C0B6833FA0CF232
:101D580058D0012202FA0CF203EA020E32EA030317
:101D6800F1D14B68122B3FF644AF122B3FF662AF0E
:101D780001A555F823F000BF2B1C00083B1C0008E8
:101D8800D11C0008E31C00083D1C00083D1C00088D
:101D98003D1C00083D1C00083D1C00083D1C0008B7
:101DA8003D1C00083D1C00083D1C00083D1C0008A7
:101DB8003D1C00083D1C00083D1C0008CB1C000809
:101DC800D71C0008012394E7022392E7032390E736
:101DD80004238EE7114A936823EA0E03936097E77A
:101DE8000E4AD36823EA0E03D3609AE70B4A536876
:101DF80023EA0E0353609DE7084A136823EA0E039B
:101E08001360A0E702B070BD00002210000031107E
:101E18000010024000000140000801400004014099
:101E28000AB10161704709040161704703685A6982
:101E380012F4806F01D1002070476FF480625A61FC
:101E480000230363202280F83D2080F83E30026C96
:101E580042F00402026480F83C30012070472DE90A
:101E6800F04106460C46174698463BE0FFF738FE19
:101E7800069BC01A404502D8B8F1000F32D1012D97
:101E880018D033689B6924EA03039BB2B3FA83F33F
:101E98005B099F4226D100233363202286F83D2028
:101EA80086F83E30326C42F02002326486F83C30CC
:101EB800012027E033685B6924EA03039BB2B3FA85
:101EC80083F35B09E5E733685B6924EA030C1FFACF
:101ED8008CFCBCFA8CFC4FEA5C1C674511D1B8F14C
:101EE800FF3FC3D1C4F30745012DECD033689B698C
:101EF80024EA030C1FFA8CFCBCFA8CFC4FEA5C1C2D
:101F0800EBE70020BDE8F0812DE9F84305460E46D1
:101F18009046994653E01A6842F400721A602B689A
:101F28006FF480625A6100232B63202285F83D20DC
:101F380085F83E302A6C42F004022A6485F83C3069
:101F480001204AE0FFF7CCFDA0EB0900404502D88C
:101F5800B8F1000F33D1012F17D02B689B6926EAFF
:101F680003039BB2003B18BF012343B300232B6339
:101F7800202285F83D2085F83E302A6C42F0200268
:101F88002A6485F83C30012027E02B685B6926EA43
:101F980003039BB2003B18BF0123E6E72B689C694B
:101FA80026EA0404A4B2003C18BF0124A4B12B689B
:101FB8005A6912F4806FAED1B8F1FF3FC2D1C6F3AF
:101FC8000747012FEAD12B685C6926EA0404A4B20A
:101FD800003C18BF0124E9E70020BDE8F88370B58C
:101FE80004460D46164623685B6913F0800F21D11D
:101FF8002046FFF71BFFF8B9B5F1FF3FF3D0FFF715
:102008006FFD801BA84201D8002DECD123685B69C5
:1020180013F0800FE7D100232363202284F83D20AA
:1020280084F83E30226C42F02002226484F83C306E
:10203800012000E0002070BD0120FCE72DE9F043FD
:1020480085B004460D4691461F46DDF830800D9E4A
:102058000368196841F480711960009643460022AC
:102068004FF00111FFF7FBFE60B9236805F0FE058C
:102078001D613346424626492046FFF745FF68B1B1
:10208800012008E023681B6813F4807F02D04FF416
:1020980000732364032005B0BDE8F0830023039395
:1020A80023685A6903929B690393039B324641460E
:1020B8002046FFF794FF30B9012F0FD123685FFA4C
:1020C80089F61E61E7E7236C042B01D00120E2E7C3
:1020D8002268136843F400731360F7E723684FEA34
:1020E80019221A61324641462046FFF778FF20B987
:1020F80023685FFA89F61E61CDE7236C042B01D0B3
:102108000120C8E72268136843F400731360F7E7F7
:10211800020001002DE9F04784B004460D4616463A
:1021280099460C9FDDF834800268136843F4806395
:1021380013600368196841F480711960CDF8008054
:102148003B4600224FF00111FFF789FE70B95FFA94
:1021580085FA236805F0FE051D6143463A46414964
:102168002046FFF7D1FE68B1012008E023681B680C
:1021780013F4807F02D04FF400732364032004B06B
:10218800BDE8F0870023039323685A6903929B698B
:102198000393039B424639462046FFF720FF80B948
:1021A800B9F1010F18D12368F6B21E6142463946CB
:1021B8002046FFF714FF68B3236C042B24D00120BA
:1021C800DDE7236C042B01D00120D8E722681368CF
:1021D80043F400731360F7E72368320A1A61424632
:1021E80039462046FFF7FBFE18B92368F6B21E6190
:1021F800DCE7236C042B01D00120C0E722681368B8
:1022080043F400731360F7E72268136843F400731C
:102218001360D4E72268136843F480731360CDF821
:1022280000803B4600224FF001112046FFF717FEC1
:1022380068B922684AF00103136143463A460949DE
:102248002046FFF761FE002899D0012097E7236810
:102258001B6813F4807F02D04FF4007323640320BB
:102268008DE700BF0200010070B504460D46164612
:1022780023685B6913F0040F21D12046FFF7D6FDD0
:10228800F8B9B5F1FF3FF3D0FFF72AFC801BA8424D
:1022980001D8002DECD123685B6913F0040FE7D156
:1022A80000232363202284F83D2084F83E30226CEA
:1022B80042F02002226484F83C30012000E0002033
:1022C80070BD0120FCE770B504460D46164614E0C3
:1022D8006FF010025A6100232363202284F83D2006
:1022E80084F83E30226C226484F83C30012025E0DA
:1022F80023685B6913F0400F10D02368586910F009
:10230800400F1AD1586910F0100FE1D1FFF7E8FB20
:10231800801BA842ECD8002DEFD1E9E70023236306
:10232800202284F83D2084F83E30226C42F02002BE
:10233800226484F83C30012000E0002070BD0000D9
:10234800002800F0CC8070B5044690F83D30002B92
:1023580077D0242384F83D302268136823F00103E2
:1023680013602268136843F40043136022681368FB
:1023780023F40043136000F01BFE62685A4B9A4234
:1023880064D85A4B98428CBF00230123002B40F09D
:10239800A8805749A1FB00318B0C25686A6822F098
:1023A8003F0242EA91426A6021680A6A22F03F02CB
:1023B80066684D4DAE424FD8013313430B62216816
:1023C800CA6922F44F4222F0FF026568464B9D42DB
:1023D8004CD8431E6D00B3FBF5F3013340F6FC7097
:1023E800034278D0C3F30B031A43CA6121680B6810
:1023F80023F0C003E269206A024313430B6021689B
:102408008B6823F4034323F0FF032269E068024347
:1024180013438B602168CB6823F0FF036269A069CE
:1024280002431343CB602268136843F0010313602F
:1024380000202064202384F83D30206384F83E0087
:1024480070BD80F83C30FFF76FF882E7294B98425F
:102458008CBF0023012399E74FF4967505FB03F31E
:10246800254DA5FB03539B090133A6E7A668BEB912
:10247800431E05EB450CB3FBFCF30133C3F30B031D
:10248800B3FA83F35B0943BBC6B9431E05EB4505A5
:10249800B3FBF5F30133C3F30B0343F40043A3E7A2
:1024A800431E05EB850C0CEB8C0CB3FBFCF30133E2
:1024B800C3F30B03B3FA83F35B09E4E7431E05EBAD
:1024C800850505EB8505B3FBF5F30133C3F30B0372
:1024D80043F4404388E7042386E7012384E7012087
:1024E80070470120ACE700BFA08601007F841E0072
:1024F80083DE1B43FF083D00D34D62102DE9F043F6
:1025080083B004460F46904699460C9EFFF7E8FABA
:10251800054694F83D00C0B2202803D0022003B03D
:10252800BDE8F0830095192301224B492046FFF7A7
:1025380096FC002840F0898094F83C30012B00F08C
:102548008680012384F83C3023681A6812F0010F52
:1025580003D11A6842F001021A602268136823F452
:1025680000631360212384F83D30402384F83E3013
:10257800002323640A9B6362BDF82C306385638D56
:102588002385364BE362019500964B464246394611
:102598002046FFF753FD00285BD1238D002B35D053
:1025A8002A4631462046FFF71AFD20BB626A236897
:1025B80012781A61626A531C6362218D013989B2EB
:1025C8002185638D9BB2013B9BB263852368586963
:1025D80010F0040FE1D00029DFD052781A61636A45
:1025E80001336362238D013B2385638D9BB2013BDD
:1025F8009BB26385D1E7236C042B01D001208EE7C1
:102608002268136843F400731360F7E72A463146DB
:102618002046FFF729FE50B1236C042B01D001207E
:102628007DE72268136843F400731360F7E72268B4
:10263800136843F400731360202384F83D300023AB
:1026480084F83E3084F83C3069E7022067E70220CE
:1026580065E7012063E700BF020010000000FFFFEC
:102668002DE9F04389B004460F4690469946129EDC
:1026780000230793FFF734FA054694F83D00C0B2EB
:10268800202804D00227384609B0BDE8F083009519
:102698001923012281492046FFF7E1FB002840F079
:1026A800728194F83C30012B00F06F81012384F88B
:1026B8003C3023681A6812F0010F03D11A6842F0FF
:1026C80001021A602268136823F40063136022234E
:1026D80084F83D30402384F83E3000232364109B67
:1026E8006362BDF844306385638D23856C4BE36278
:1026F800019500964B46424639462046FFF70AFDAB
:102708000746002840F04381238D5BB90393236873
:102718005A6903929A690392039A1A6842F40072FA
:102728001A60EDE0012B0FD0022B21D0226813682C
:1027380043F4806313600023069323685A69069262
:102748009B690693069BDBE02268136823F4806389
:10275800136072B60023049323685A6904929A6935
:102768000492049A1A6842F400721A6062B6C7E0CA
:102778002268136843F40063136072B6002305935C
:1027880023685A6905929A690592059A1A6822F48B
:1027980080621A6062B6B3E02A4631462046FFF7E7
:1027A80092FD002840F0F58023681A69636A1A7060
:1027B800636A01336362238D013B2385638D9BB27A
:1027C800013B9BB263859BE0009533460022354967
:1027D8002046FFF744FB002840F0DF80226813689A
:1027E80023F48063136072B623681A69636A1A70E7
:1027F800636A01336362238D013B2385638D9BB23A
:10280800013B9BB26385284B1B68DB08274AA2FB68
:1028180003231B0A03EB8303C3EBC3030793079B41
:10282800013B0793079B002B28D023685A6912F0B5
:10283800040FF4D01A6842F400721A6023681A6907
:10284800636A1A70636A01336362238D013B2385CF
:10285800638D9BB2013B9BB2638562B623681A699C
:10286800636A1A70636A01336362238D013B2385AF
:10287800638D9BB2013B9BB2638541E023632022B9
:1028880084F83D2084F83E30226C42F02002226415
:1028980062B684F83C300127F5E600BF020010005C
:1028A8000000FFFF040001000000002089B5F814B3
:1028B8002A4631462046FFF706FD00286FD12368D7
:1028C8001A69636A1A70626A531C6362238D013B3A
:1028D8002385638D9BB2013B9BB26385236859694D
:1028E80011F0040F0CD01B695370636A01336362E3
:1028F800238D013B2385638D9BB2013B9BB263858E
:10290800238D002B36D0032BD2D8012B3FF444AFB4
:10291800022B7FF459AF0095334600222149204607
:10292800FFF79DFA002836D172B62268136843F47F
:102938000073136023681A69636A1A70636A013343
:102948006362238D013B2385638D9BB2013B9BB260
:10295800638562B623681A69636A1A70636A013309
:102968006362238D013B2385638D9BB2013B9BB240
:102978006385C5E7202384F83D30002384F83E3082
:1029880084F83C307FE602277DE602277BE60127B4
:1029980079E6012777E6012775E6012773E601271F
:1029A80071E600BF0400010082B0084B1B68084AAA
:1029B800A2FB03235B0A00FB03F3019300BF019B07
:1029C8005A1E0192002BF9D102B070470000002076
:1029D800D34D6210002800F0F18170B582B0044632
:1029E800036813F0010F2CD0994B5B6803F00C03BC
:1029F800042B1DD0964B5B6803F00C03082B12D0F8
:102A08006368B3F5803F41D0002B55D103F1804373
:102A180003F504331A6822F480321A601A6822F423
:102A280080221A6037E08A4B5B6813F4803FE7D056
:102A3800874B1B6813F4003F03D06368002B00F03A
:102A4800BF81236813F0020F75D0814B5B6813F0C8
:102A58000C0F5FD07E4B5B6803F00C03082B54D03F
:102A68002369002B00F08A807A4B01221A60FFF755
:102A780037F80546764B1B6813F0020F75D1FFF740
:102A88002FF8401B0228F5D903209EE1704A1368ED
:102A980043F480331360636843B3FFF721F80546B6
:102AA8006B4B1B6813F4003FCBD1FFF719F8401BA1
:102AB8006428F5D9032088E1B3F5A02F09D0644B29
:102AC8001A6822F480321A601A6822F480221A6086
:102AD800E1E703F18043A3F53C331A6842F480220E
:102AE8001A601A6842F480321A60D4E7FEF7F8FFD9
:102AF8000546574B1B6813F4003FA2D0FEF7F0FFC2
:102B0800401B6428F5D903205FE1514B5B6813F43F
:102B1800803FA5D14E4B1B6813F0020F03D02369E9
:102B2800012B40F04F814A4A136823F0F80361698A
:102B380043EAC1031360236813F0080F33D0A36975
:102B4800002B5CD0434B0122C3F88024FEF7C8FF5A
:102B580005463F4B5B6A13F0020F21D1FEF7C0FF19
:102B6800401B0228F5D903202FE1394A136823F0C6
:102B7800F803616943EAC1031360DCE7354B0022BF
:102B88001A60FEF7ADFF0546314B1B6813F0020FC4
:102B9800D1D0FEF7A5FF401B0228F5D9032014E188
:102BA8000120FFF701FF236813F0040F00F096805F
:102BB800274BDB6913F0805F34D1254BDA6942F08B
:102BC8008052DA61DB6903F080530193019B012590
:102BD800214B1B6813F4807F26D0E368012B3DD07E
:102BE800002B53D103F1804303F504331A6A22F012
:102BF80001021A621A6A22F004021A6233E0154BC3
:102C08000022C3F88024FEF76BFF0546104B5B6A71
:102C180013F0020FC7D0FEF763FF401B0228F5D957
:102C28000320D2E00025D3E70B4A136843F48073EE
:102C38001360FEF755FF0646074B1B6813F4807FA9
:102C4800CBD1FEF74DFF801B6428F5D90320BCE0EB
:102C58000010024000004242007000405F4A136AC0
:102C680043F001031362E36833B3FEF739FF064606
:102C78005A4B1B6A13F0020F2FD1FEF731FF801B4E
:102C880041F288339842F3D903209EE0052B09D0FE
:102C9800524B1A6A22F001021A621A6A22F00402DE
:102CA8001A62E0E74D4B1A6A42F004021A621A6A85
:102CB80042F001021A62D6E7FEF712FF0646474BBA
:102CC8001B6A13F0020F08D0FEF70AFF801B41F2BF
:102CD80088339842F3D9032077E0E5B9E369002BFC
:102CE80072D03E4A526802F00C02082A56D0022BD3
:102CF80017D03B4B00221A66FEF7F2FE0446374B0C
:102D08001B6813F0007F47D0FEF7EAFE001B02287D
:102D1800F5D9032059E0314AD36923F08053D361B0
:102D2800DCE72F4B00221A66FEF7DAFE05462B4B2E
:102D38001B6813F0007F06D0FEF7D2FE401B022866
:102D4800F5D9032041E0236AB3F5803F1AD023491F
:102D58004B6823F47413226A606A024313434B607E
:102D68001F4B01221A66FEF7BBFE04461B4B1B686D
:102D780013F0007F0ED1FEF7B3FE001B0228F5D931
:102D8800032022E0154A536823F40033A1680B435B
:102D98005360DCE7002018E0002016E0012B16D075
:102DA8000E4B5B6803F48031226A914211D103F41F
:102DB8007013626A93420ED1002006E0012070472A
:102DC800012002E0012000E0002002B070BD0120D7
:102DD800FBE70120F9E70120F7E700BF00100240F8
:102DE800000042420F4B5B6803F00C02082A01D036
:102DF8000D487047C3F383420C49885C13F4803F45
:102E08000BD0084B5B68C3F34043094AD35C064ABE
:102E180002FB00F0B0FBF3F07047064B03FB00F039
:102E2800704700BF0010024000127A002CEB000827
:102E380028EB000800093D00002800F0A08070B5CC
:102E48000D460446524B1B6803F007038B420BD216
:102E58004F4A136823F007030B431360136803F00A
:102E680007038B4240F08D80236813F0020F17D0C0
:102E780013F0040F04D0474A536843F4E0635360E7
:102E8800236813F0080F04D0424A536843F4605390
:102E98005360404A536823F0F003A1680B43536022
:102EA800236813F0010F31D06368012B20D0022B67
:102EB80025D0384A126812F0020F64D035494A68A2
:102EC80022F0030213434B60FEF70AFE0646314B1D
:102ED8005B6803F00C036268B3EB820F16D0FEF751
:102EE800FFFD801B41F288339842F0D9032045E06A
:102EF800284A126812F4003FE0D101203EE0254A3A
:102F0800126812F0007FD9D1012037E0204B1B68EE
:102F180003F00703AB420AD91D4A136823F00703DD
:102F28002B431360136803F00703AB422DD12368CA
:102F380013F0040F06D0174A536823F4E063E168DE
:102F48000B435360236813F0080F07D0114A5368E6
:102F580023F46053216943EAC1035360FFF742FF3A
:102F68000C4B5B68C3F303130B4AD35CD8400B4B81
:102F780018600B4B1868FEF76FFD002070BD01202C
:102F880070470120FAE70120F8E70120F6E700BFC3
:102F9800002002400010024018EB0008000000204A
:102FA80008000020014B1868704700BF000000208F
:102FB80008B5FFF7F7FF044B5B68C3F30223034A26
:102FC800D35CD84008BD00BF0010024010EB0008D9
:102FD80008B5FFF7E7FF044B5B68C3F3C223034A56
:102FE800D35CD84008BD00BF0010024010EB0008B9
:102FF8002DE9F04782B00546884617461E46FEF77B
:103008006FFD0A9B1B1A03EB0609FEF769FD824652
:10301800284B1B68C3F3CB3309FB03F301932B68DD
:103028009C6838EA04040CBF01230023BB423DD04E
:10303800B6F1FF3FF3D0FEF753FDA0EB0A00484579
:1030480007D2019A02B14A46019B013B019391467E
:10305800E5E72A68536823F0E00353606B68B3F52B
:10306800827F0BD0AB6AB3F5005F14D0012385F8DB
:103078005130002385F85030032018E0AB68B3F5D1
:10308800004F02D0B3F5806FECD12A68136823F0A3
:1030980040031360E6E72A68136823F400531360BB
:1030A8002A68136843F400531360DFE7002002B076
:1030B800BDE8F0870000002010B582B004460B463A
:1030C800009200228021FFF793FF08B902B010BDDB
:1030D800636D43F0200363650320F7E7002856D0AB
:1030E80010B50446436A33B94368B3F5827F05D007
:1030F8000023C36102E00023036143610023A3624C
:1031080094F85130002B3CD0022384F851302268C7
:10311800136823F040031360636803F48273A268A2
:1031280002F404421343E26802F400621343226982
:1031380002F002021343626902F001021343A2691A
:1031480002F400721343E26902F038021343226A60
:1031580002F080021343A26A02F40052216813436A
:103168000B60638B226803F0040353602268D36901
:1031780023F40063D36100206065012384F8513093
:1031880010BD84F850302046FEF72AFBBCE701202A
:1031980070472DE9F04383B01D4690F85030012B5D
:1031A80000F0D180044688469146012380F85030CB
:1031B800FEF796FC074694F85160F6B2012E40F0EF
:1031C800BA80B8F1000F00F0B780B9F1000F00F035
:1031D800B380032384F8513000236365C4F830803A
:1031E800A4F83490A4F83690A363A387E3876364B4
:1031F8002364A368B3F5004F1ED023681A6812F041
:10320800400F03D11A6842F040021A60E368B3F530
:10321800006F1CD0636813B1B9F1010F55D1226B4F
:10322800236812781A73236B01332363E38E9BB2EE
:10323800013B9BB2E38648E02268136823F0400311
:1032480013602268136843F480431360D5E763680A
:1032580013B1B9F1010F15D1226B23681288DA6016
:10326800236B02332363E38E9BB2013B9BB2E3865D
:1032780008E0FEF735FCC01BA84202D3B5F1FF3FBA
:1032880015D1A5B1E38E9BB2002B3CD023689A6878
:1032980012F0020FEDD0226B1288DA60236B023332
:1032A8002363E38E9BB2013B9BB2E386EAE70123EB
:1032B80084F8513003263FE0FEF712FCC01BA842F9
:1032C80002D3B5F1FF3F19D1C5B1E38E9BB2D3B19B
:1032D80023689A6812F0020FEED0226B12781A73E4
:1032E800236B01332363B4F836C01FFA8CFC0CF14E
:1032F800FF3C1FFA8CFCA4F836C0E6E7012384F8EB
:103308005130032618E03A4629462046FFF7D4FEF6
:1033180008B120236365A36833B901932368DA6889
:1033280001929B680193019B636D2BB9012384F87B
:103338005130002600E00226002384F85030304641
:1033480003B0BDE8F0830226F9E7000010B5044693
:103358000268136923F44053C1680B4313618368FF
:103368000269134342691A430168CB6823F4B053D6
:1033780023F00C031343CB600268536923F44073B2
:1033880081690B4353610268134B9A4220D0FFF7BF
:103398000FFE024602EB820202EB820263689B0088
:1033A800B2FBF3F20D48A0FB02314909642303FB89
:1033B80011231B013233A0FB03035B0903F0F00266
:1033C80002EB011203F00F03216813448B6010BD58
:1033D800FFF7FEFD0246DDE7003801401F85EB518F
:1033E8002DE9F84305460F4616469946DDF8208034
:1033F8002B681C6837EA04040CBF01240024B4427B
:103408002DD1B8F1FF3FF3D0B8F1000F05D0FEF78A
:1034180067FBA0EB09004045EAD92A6802F10C03D2
:1034280053E8003F23F4D0730C3242E800310029FE
:10343800F3D12A6802F1140353E8003F23F0010393
:10344800143242E800310029F3D1202385F84130B5
:1034580085F84230002385F84030032000E0002042
:10346800BDE8F88360B310B5044690F8413013B353
:10347800242384F841302268D36823F40053D360AE
:103488002046FFF763FF2268136923F49043136112
:103498002268536923F02A0353612268D36843F4EE
:1034A8000053D36000206064202384F8413084F8FE
:1034B8004230606310BD80F84030FEF76BFAD7E702
:1034C800012070472DE9F04182B01E4690F8413046
:1034D800DBB2202B4BD104460D46904600294AD03A
:1034E8000AB9012044E000234364212380F84130D5
:1034F800FEF7F6FA0746A4F82480A4F82680A36805
:10350800B3F5805F02D04FF000080FE02369FBB1EC
:103518004FF000080AE038F8023B2268C3F30803BA
:103528005360E28C92B2013A92B2E284E38C9BB28D
:103538008BB100963B46002280212046FFF750FFC2
:10354800D8B9002DE7D015F8012B23685A60E8E7B1
:10355800A8460025EAE700963B460022402120467F
:10356800FFF73EFF58B9202384F8413000E00220DD
:1035780002B0BDE8F0810120FAE70320F8E7032054
:10358800F6E700000FB410B582B004AA52F8041B85
:103598000192094C204603F043FE204603F066FFE3
:1035A800642382B221460548FFF78CFF02B0BDE8CC
:1035B800104004B0704700BF5408002008080020DD
:1035C8000EB4F0B5C2B0054647AC54F8047BFF26EC
:1035D8003246002102A803F06FFE019422463946C4
:1035E80002A803F01DFE02A803F040FF334682B292
:1035F80002A92846FFF766FF42B0BDE8F04003B0D5
:10360800704790F90030002B01DD002070470FDB78
:1036180090F90130002B01DD012070470ADB90F999
:103628000230002B08DC01DB0720704706207047BA
:1036380004207047052070470220704738B50546BA
:10364800FFF7DFFF0446E81CFFF7DBFF44EAC0048E
:1036580024B2A81DFFF7D5FF44EA801080B238BD18
:10366800F0B583B007462C4B586801AB04220D21F6
:10367800007803F09BFA00284BD104469DF80420FB
:10368800D21002F01C029DF80730C3F301110A435F
:103698008DF800209DF80520D21002F01C02C3F31B
:1036A80081010A438DF801209DF80620D21002F00E
:1036B8001C0203F0030313438DF8023018E007EBF4
:1036C8008405164B47F8243004E015492868FDF7AF
:1036D800B3FA286006F108030DEB030212F8083C60
:1036E800013BDBB202F8083C002BEED10134E4B216
:1036F800022C0BD8264604F108036B4413F8083C47
:10370800002BDCD1002347F82430EFE7002003B07A
:10371800F0BD0720FBE700BF180000207B14AE3E79
:103728001D5A843F2DE9F04385B08146884601A89B
:10373800FFF796FF00273C460DE021493046FDF78C
:1037480019FC20B91F493046FDF732FC10B101239E
:10375800A3401F430134022C2EDCA50059F8240095
:1037680058F82430C01A0028B8BF4042FDF710FAB4
:103778004FF05E51FDF760FA064605F110030DEBB8
:10378800030555F80C5C00212846FDF7E9FB0028E5
:10379800D3D129463046FDF703FB4FF07E51FDF7A4
:1037A80041F920F000400849FDF702FC0028D1D07B
:1037B8000123A3401F43CDE7384605B0BDE8F08399
:1037C8009A99993E3333733F295C0F3E2DE9F041B6
:1037D80082B007468846374B586801AB03220D2153
:1037E800007803F0E3F900285FD19DF8043003F076
:1037F8001F038DF804309DF8053003F01F038DF882
:1038080005309DF8063003F01F038DF806300026BA
:10381800344626E02849FDF70FFA04F108030DEBBA
:10382800030212F8043C013BDBB202F8043C002B13
:10383800F0D101462846FDF7B3FA4FF07E51FDF767
:10384800F1F820F000401D49FDF7B2FB40B101231B
:10385800A3401E4304E01A48DFE70123A3401E43A8
:103868000134022C22DC57F8240058F82430C01AFE
:103878000028B8BF4042FDF78BF94FF05E51FDF7C5
:10388800DBF9054604F108036B4413F8043C002BEC
:10389800E1D10C49FDF76EFB0028DED10A49284624
:1038A800FDF786FB0028DBD0D7E70726304602B0B5
:1038B800BDE8F0811800002054E3853F295C0F3EE5
:1038C8000000C841000020410000D24200B583B08A
:1038D800234B93F82430CBB1A0B102238DF80730E5
:1038E8001F4B586819680DF107030122C97B00783E
:1038F80003F04CF940BB9DF80720194B5A7403B0EC
:103908005DF804FB00238DF80730E9E7144B9B7A38
:10391800EBB130B1124B5B7CE3B901238DF8073072
:1039280002E000238DF807300D4B586819680DF137
:1039380007030122C97B007803F028F960B99DF8D4
:103948000720074B5A74DAE74FF0FF30D7E74FF0FC
:10395800FF30D4E70020D2E74FF0FF30CFE700BFB9
:1039680018000020F0B589B005460C46164601231C
:103978008DF8143000238DF81530854B5868196878
:1039880005AB0222897C007803F000F9002840F09A
:10399800CE81C820FEF7AAF800238DF814307C4B9E
:1039A8005868196805AB0122C97B007803F0EEF866
:1039B800002840F0BF81764B5868196805AB012292
:1039C8004979007803F0E2F8002840F0B681704B9E
:1039D8005868196805AB0122897C007803F0D6F88D
:1039E800002840F0AD816A4B5868196805AB012280
:1039F800C97D007803F0CAF8002840F0A481644B20
:103A08005868196805AB01220979007803F0BEF8F7
:103A1800002840F09B810C238DF814305C4B5868CB
:103A2800196805AB01220979007803F0AFF800287E
:103A380040F08F810F20FEF759F8554B9A6A527A59
:103A48008DF814205868196805AB01228978007828
:103A580003F09CF8002840F07F814D4B9A6A127A57
:103A68008DF814205868196805AB01224978007848
:103A780003F08CF8002840F07281002E79D0444B76
:103A88009B6A9B7A63F01F038DF81430404B58688B
:103A9800196805AB01228979007803F077F80028C6
:103AA80040F06081002E6AD0394B9B6ADB7A63F064
:103AB8001F038DF81430364B5868196805AB01227E
:103AC800C979007803F062F8002840F04E81002E92
:103AD80059D140238DF814302D4B5868196805AB1F
:103AE80001220979007803F051F8002840F040815C
:103AF80078238DF81430264B5868196805AB0122D5
:103B08004979007803F042F8002840F034813220E7
:103B1800FDF7ECFF00238DF814301D4B5868196829
:103B280005AB01224979007803F030F8002840F00D
:103B38002581174B5868196805AB0222897A0078E5
:103B480003F034F80646002840F01B819DF8143035
:103B58009DF8157047EA03270E4BA3FB0737C7F3F9
:103B6800C7070023AB606B602B60A36063602360B2
:103B78005CE0074B9B6A9B7A8DF8143086E7182324
:103B88008DF8143097E7C820FDF7B0FFA1E700BF14
:103B980018000020ABAAAAAA9DF814309DF81510A9
:103BA80041EA032109B2ADF804109DF816309DF8DA
:103BB800172042EA032212B2ADF806209DF8180039
:103BC8009DF8193043EA00231BB2ADF8083020688D
:103BD80008442060616811446160A2681A44A260C8
:103BE8009DF81A309DF81B1041EA032109B2ADF87F
:103BF8000C109DF81C309DF81D2042EA032212B2D9
:103C0800ADF80E209DF81E009DF81F3043EA0023F2
:103C18001BB2ADF810302868084428606968114460
:103C28006960AA681A44AA600136F6B2BE420ED28A
:103C3800554B5868196805AB0C22C97A007802F010
:103C4800B5FF0028A8D04FF0FF3009B0F0BD2968B3
:103C58008322002308040914FDF7FAF900263A46DE
:103C68003346FDF7F5F928606968832200230804C4
:103C78000914FDF7EDF93A463346FDF7E9F96860AE
:103C8800A9688322002308040914FDF7E1F93A46DC
:103C98003346FDF7DDF9A8602068031400041946CF
:103CA800B3422DDBC00A3A46334640EA4150C912B6
:103CB800FDF7CEF920606068031400041946002B54
:103CC80024DBC00A3A46334640EA4150C912FDF7A0
:103CD800BFF96060A068031400041946002B1BDBC1
:103CE800C00A3A46334640EA4150C912FDF7B0F9D6
:103CF800A060002816DDA0F58030A0600020A4E7B1
:103D080040F2FF72801843F10001CBE740F2FF72E6
:103D1800801843F10001D4E740F2FF72801843F1A4
:103D28000001DDE700F58030A06000208DE74FF04E
:103D3800FF308AE74FF0FF3087E74FF0FF3084E726
:103D48004FF0FF3081E74FF0FF307EE74FF0FF3054
:103D58007BE74FF0FF3078E74FF0FF3075E74FF023
:103D6800FF3072E74FF0FF306FE74FF0FF306CE73E
:103D78004FF0FF3069E74FF0FF3066E74FF0FF3054
:103D880063E74FF0FF3060E7180000207C4B9B7A18
:103D9800002B00F0D48000B583B000238DF80730E5
:103DA800774B586819680DF107030122C97B007821
:103DB80002F0ECFE002840F0C580714B5868196885
:103DC8000DF1070301224979007802F0DFFE00288F
:103DD80040F0BB806A4B586819680DF1070301224F
:103DE8000979007802F0D2FE002840F0B180644BD7
:103DF80093F82430002B52D00C238DF80730604BF9
:103E0800586819680DF1070301220979007802F052
:103E1800BDFE002840F09F803220FDF767FEC023DA
:103E28008DF80730564B9B7A13F0010F02D0E02330
:103E38008DF80730524B586819680DF107030122B5
:103E48000979007802F0A2FE002840F087804C4BE8
:103E58005B7C03B302238DF80730494B5868196817
:103E68000DF107030122C97B007802F08FFE0028BC
:103E780077D100238DF80730414B586819680DF148
:103E8800070301224979007802F080FE00286BD1EF
:103E980003B05DF804FB00238DF80730DDE7042349
:103EA8008DF80730364B586819680DF10703012261
:103EB8000979007802F06AFE002858D1304B9B7CC3
:103EC80023B92F4B9B7A13F0010F30D140238DF883
:103ED80007302B4B586819680DF10703012209793F
:103EE800007802F053FE002844D13220FDF7FEFD91
:103EF800234B5B7CFBB101238DF80730204B5868BE
:103F080019680DF107030122C97B007802F03EFE13
:103F180098BB1B4B586853F8101B0122497900784D
:103F280002F034FE0028B3D04FF0FF30B0E7602332
:103F38008DF80730CDE700238DF80730DEE74FF026
:103F4800FF3070474FF0FF30A2E74FF0FF309FE798
:103F58004FF0FF309CE74FF0FF3099E74FF0FF300C
:103F680096E74FF0FF3093E74FF0FF3090E74FF0C0
:103F7800FF308DE74FF0FF308AE74FF0FF3087E7DB
:103F8800180000200D4B1B7A032B13D8DFE803F031
:103F980002060A0EFA230380002070474FF4FA73D2
:103FA8000380F9E74FF47A730380F5E74FF4FA6377
:103FB8000380F1E700230380EEE700BF180000202C
:103FC800244B9B7A002B3CD000B583B0B0F57A7FA8
:103FD80033D00BD8FA2813D0B0F5FA7F03D10823D1
:103FE8008DF807300FE04FF0FF3023E0B0F5FA6F9F
:103FF80003D118238DF8073005E04FF0FF3019E0A2
:1040080000238DF80730134B1B7A9DF80720B3EB7C
:10401800D20F19D00F4B586819680DF10703012208
:104028008979007802F0B2FD80B99DF80730DB0885
:10403800084A137203B05DF804FB10238DF80730AB
:10404800E1E74FF0FF3070470020F3E74FF0FF3013
:10405800F0E700BF180000200F4B5B7A032B16D83F
:10406800DFE803F0020C0F12022303700A4BDB7C1B
:1040780083B103785B00037000207047042303704A
:10408800F4E708230370F1E710230370EEE74FF01D
:10409800FF3070470020704718000020234B9B7AA0
:1040A800002B35D000B583B002380E2833D8DFE8AE
:1040B80000F0083223323232273232323232323290
:1040C8002B0000238DF80730184B5B7A9DF80720EA
:1040D800B3EBD20F24D0154B586819680DF10703BC
:1040E8000122C979007802F051FDD8B99DF807304E
:1040F800DB080E4A537210E008238DF80730E3E717
:1041080010238DF80730DFE718238DF80730DBE739
:104118004FF0FF3070474FF0FF3003B05DF804FBFD
:104128000020FAE74FF0FF30F7E700BF1800002043
:104138000F4BDB7A013B052B17D8DFE803F00307A9
:104148000A0D1013BC2303800020704762230380EC
:10415800FAE72A230380F7E714230380F4E70A2306
:104168000380F1E705230380EEE700230380EBE7F4
:1041780018000020234B9B7A002B3AD000B583B05F
:10418800BB281AD901238DF807301E4BDA7A9DF81F
:1041980007309A4230D01B4B586819680DF1070355
:1041A80001228978007802F0F1FC38BB9DF80720DD
:1041B800144BDA7203B05DF804FB612803D90223BB
:1041C8008DF80730E1E7292803D903238DF8073054
:1041D800DBE7132803D904238DF80730D5E709282E
:1041E80003D905238DF80730CFE706238DF807306C
:1041F800CBE74FF0FF3070470020DBE74FF0FF3090
:10420800D8E700BF18000020054B93F8243023B9E5
:10421800034BDB890380002070474FF0FF30704765
:10422800180000200D4B1B7A032B13D8DFE803F08E
:1042380002060A0E0A4B036000207047094B036010
:1042480000207047084B036000207047074B03604D
:10425800002070474FF0FF30704700BF1800002063
:104268000000034300008342333303423333834166
:10427800114B5B7A032B1AD8DFE803F0020D1115F6
:104288004FF4804303800C4BDB7C9BB103885B08B5
:1042980003800020704741F69C730380F3E74FF4D6
:1042A80080530380EFE74FF400630380EBE74FF0A0
:1042B800FF3070470020704718000020024B1B7C1D
:1042C80003700020704700BF1800002070B5174B1E
:1042D80093F824302BBB00F0FE04144B9B7A13B3E5
:1042E800124A167C23401374A3420BD04FF0FF35BB
:1042F80014B90E4B1B7D3BB10120FFF7E7FA3CB91F
:10430800284670BD0025F3E70020FFF7DFFAF6E73F
:10431800FFF73CFD0028F3D0044B1E744FF0FF3527
:10432800EEE70025ECE74FF0FF35E9E7180000203D
:104338002E4B93F82430002B49D0F0B583B00546B6
:104348000F461646294B9B7A002B43D0274B5868BB
:10435800196801AB0222897A007802F027FC00284C
:104368003BD19DF804309DF8054044EA0324AC4253
:1043780023D31E4B58684388B4EB530F0DD91B4BFE
:10438800196801AB0122497C007802F00FFC38BBA8
:104398009DF8043013F0100F14D1144B58681968A5
:1043A8003B46EAB2C97A007802F000FCD8B9B4FBFF
:1043B800F5F4013C347003B0F0BD002333704FF0C6
:1043C800FF30F8E7FFF7E2FC6FF00100F3E74FF08A
:1043D800FF3070474FF0FF30EDE74FF0FF30EAE76E
:1043E8004FF0FF30E7E74FF0FF30E4E71800002018
:1043F800584B9B7C834200F09C8010B582B00446E9
:10440800002844D0534B586819680DF1070301225E
:104418000979007802F0CAFB002840F08C809DF8EA
:10442800073023F020038DF807304A4B5868196885
:104438000DF1070301220979007802F0A7FB002893
:104448007CD10320FDF752FB02238DF80730414B46
:1044580093F8223013B182238DF807303D4B93F83F
:1044680023302BB19DF8073043F030038DF8073027
:10447800384B586819680DF107030122097D007847
:1044880002F084FB002844D04FF0FF3044E0314B69
:10449800586819680DF1070301220979007802F0BC
:1044A80085FB00284DD12B4B9B7A13F0010F35D09B
:1044B8009DF8073043F020038DF80730254B5868E6
:1044C80019680DF1070301220979007802F05EFBF3
:1044D800002839D10320FDF709FB1E4B93F8223041
:1044E8001BB380238DF807301A4B93F823302BB178
:1044F8009DF8073043F030038DF80730154B5868A6
:1045080019680DF107030122097D007802F03EFBCE
:10451800E8B9104B9C74002002B010BD9DF807301C
:1045280023F020038DF80730C8E700238DF8073003
:10453800DAE7002070474FF0FF30EDE74FF0FF302B
:10454800EAE74FF0FF30E7E74FF0FF30E4E74FF0DE
:10455800FF30E1E7180000201B4B93F8233083421B
:104568002DD010B582B0044628B330238DF807301B
:10457800154B9B7C2BB19DF8073043F002038DF857
:104588000730114B93F822302BB19DF8073063F0B8
:104598007F038DF807300C4B586819680DF1070335
:1045A8000122097D007802F0F1FA50B9064B83F830
:1045B800234002B010BD00238DF80730D8E7002053
:1045C80070474FF0FF30F4E71800002028285FD824
:1045D80010B582B00446B8B90020FFF7BDFF00232C
:1045E8008DF8043007238DF805302E4B586819686C
:1045F80001AB0222897C007802F0C8FA00284AD16F
:10460800284B187502B010BD0120FFF7A5FF202325
:104618008DF80430012C26D0052C2BD9142C30D839
:1046280002238DF805300A20FFF7A4FD9DF8053018
:104638009B0143F007038DF805301A4B5868196839
:1046480001AB0222897C007802F0A0FA30BB154B3E
:1046580008229A7200241C7301221A752046FFF75B
:1046680035FE2046CEE700238DF805300520FFF7FC
:1046780081FDDBE701238DF805300520FFF77AFD82
:10468800D4E703238DF805301420FFF773FDCDE739
:104698004FF0FF3070474FF0FF30B3E74FF0FF3077
:1046A800B0E700BF18000020264B9B7A002B40D0B3
:1046B80010B582B00446234B93F82430002B3BD12D
:1046C800204B1B7D33B1431E9BB2272B0AD90020F8
:1046D800FFF77CFF032C0AD9B4F57A7F08D94FF489
:1046E8007A7405E0C0B2FFF771FF00201FE00424D0
:1046F8004FF47A7393FBF4F3013B8DF80730114BB9
:10470800586819680DF1070301224978007802F00A
:104718003DFAA0B99DF8073001334FF47A7090FB49
:10472800F3F0084BD8814008FFF724FD002002B0C1
:1047380010BD4FF0FF3070474FF0FF30F7E74FF0F4
:10474800FF30F4E71800002010B582B0044610F0DE
:10475800700F50D001238DF80730334B5868196813
:104768000DF107030122897C007802F00FFA002876
:104778004AD19DF8073003F0BF032B4A1373002377
:104788008DF8073014F0400F02D104238DF807305C
:1047980014F0200F05D19DF8073043F002038DF87F
:1047A800073014F0100F05D19DF8073043F00103CE
:1047B8008DF8073014F0080F05D19DF8073043F045
:1047C80038038DF80730184B586819680DF107033E
:1047D8000122C97C007802F0D9F9D8B90CB1082CAB
:1047E8001ED1114B9C7200241C753220FDF77EF9F6
:1047F800204602B010BD18B100238DF80730ACE791
:1048080040238DF80730A8E7074B00229A724FF033
:10481800FF30EEE7044B00229A724FF0FF30E8E7D2
:104828000020FFF799FEDCE71800002010B582B0E1
:1048380080238DF80030614B586819686B46012257
:10484800897C007802F0A2F9002840F09380642067
:10485800FDF74CF900238DF80030584B586819685B
:104868006B460122897C007802F090F9002840F01C
:104878008480524B586819686B460622897D0078F7
:1048880002F094F900287BD19DF805309B0003F0D5
:1048980004039DF80320520002F0020213439DF81E
:1048A800012002F001021A434BD0012A46D0022A05
:1048B80069D1424B0022DA74404BFF229A721A7275
:1048C8005A72DA724FF6FF71D9811A749A740122FA
:1048D8001A7383F82220002283F823205A751A7548
:1048E800C3F81620C3F81A20C3F81E2083F8242022
:1048F80083F82520DA844FF4FA60FFF761FB00287B
:104908004AD10220FFF7CAFB002848D12A20FFF726
:1049180031FC002846D13220FFF7C6FE002844D1DA
:10492800FFF7D4FC002843D1FFF762FD04460028B6
:1049380041D1FFF709FF204602B010BD1F4BDA74C2
:10494800BAE71E4B586819686B460122C978007887
:1049580002F02CF9D0B99DF8003013F00F0318D0ED
:10496800042B03D0154B0022DA74A5E7134B012260
:10497800DA74A1E74FF0FF34DDE74FF0FF34DAE7F0
:104988004FF0FF34D7E74FF0FF34D4E74FF0FF3450
:10499800D1E74FF0FF34CEE74FF0FF34CBE74FF0CD
:1049A800FF34C8E74FF0FF34C5E74FF0FF34C2E7E4
:1049B8004FF0FF34BFE74FF0FF34BCE7180000208A
:1049C8003AB370B582B00C461646194B9B7A1BB3A6
:1049D800030A8DF80430C0B28DF805000844144B62
:1049E8005D686B8998421ADC114B196801AB022289
:1049F800097E287802F0CAF8A0B90D4B58681968E2
:104A08003346E2B2497D007802F0C0F868B902B0D6
:104A180070BD4FF0FF3070474FF0FF30F7E74FF0B1
:104A2800FF30F4E74FF0FF30F1E74FF0FF30EEE7EB
:104A3800180000203AB370B582B00C461646194BE0
:104A48009B7A1BB3030A8DF80430C0B28DF80500B9
:104A58000844144B5D686B8998421ADC114B19683D
:104A680001AB0222097E287802F090F8A0B90D4B1C
:104A7800586819683346E2B2497D007802F096F822
:104A880068B902B070BD4FF0FF3070474FF0FF308B
:104A9800F7E74FF0FF30F4E74FF0FF30F1E74FF062
:104AA800FF30EEE7180000202DE9F04F87B09A4656
:104AB800294B93F82530002B3CD107468846914670
:104AC80000293AD00024BC421BD23E1B102EA8BF9E
:104AD8001026B5B208EB040B5A4629462046FFF7C4
:104AE8006FFF68BB02AA29462046FFF7A3FF50BB09
:104AF8002A4602A9584602F0B1FB38BB2544ACB29D
:104B0800E1E74FEA19238DF804308DF80590124B30
:104B18005868196801AB0222897E007802F036F8DD
:104B2800B8B90D4B012283F82520A3F826A007B0B9
:104B3800BDE8F08F4FF0FF30F9E74FF0FF30F6E7B0
:104B48004FF0FF30F3E74FF0FF30F0E76FF0010070
:104B5800EDE74FF0FF30EAE718000020234B93F809
:104B6800243083423CD030B583B018B31F4B93F840
:104B78002530002B36D00020FEF7A8FE0020FFF7D6
:104B880037FC1A4DE88CFFF78FFD00248DF807409D
:104B980068680DF1070301222321007801F0F6FF70
:104BA800012085F82400FEF791FEFFF7EFF8204674
:104BB80003B030BD0020FEF789FE0C4D2B7C8DF82C
:104BC800073068680DF1070301222321007801F0FE
:104BD800DDFF002485F82440FFF7D8F82046E7E7F2
:104BE800002070474FF0FF30E2E700BF18000020B8
:104BF8002DE9F04188B005460E463D4B93F82470E8
:104C0800FFB901A8FFF7BEF90DF10700FFF724FA75
:104C18006846FFF78DFA0DF10200FFF7F5FA344BFD
:104C280093F80A800DF10600FFF748FB0024012CD9
:104C38000CDC002231462846FEF794FE30B10134E0
:104C4800F5E70020FFF78AFF0127DAE7022C1FD0DB
:104C58000024012C07DC012202A905A8FEF782FE28
:104C680008B10134F5E7022C14D002A93046FEF74A
:104C780059FDC6B205A92846FEF7A8FD10F0FF0F9A
:104C880004D000243EB944F0020404E00124F9E70A
:104C9800002400E00024164BFF221A725A72DA72BE
:104CA8004FF6FF71D9819A721A7401221A73BDF8EE
:104CB8000400FFF785F99DF80700FFF7EFF9BDF845
:104CC8000000FFF757FABDF80200FFF7EDFC404679
:104CD800FFF73AFD9DF80600FFF7F8FA1FB92046DE
:104CE80008B0BDE8F0810120FFF738FFF7E700BF03
:104CF8001800002003680BB90120704710B504465E
:104D0800FCF7EEFE2060002010BD10B588B002A9A7
:104D180005A8FFF76DFF032802D0012008B010BDD9
:104D280001A8FFF77FFA019C0598FBF731FF2146A0
:104D3800FBF782FFFCF746F905900698FBF728FF7A
:104D48002146FBF779FFFCF73DF906900798FBF73A
:104D58001FFF2146FBF770FFFCF734F9079005A801
:104D680000F006FA0DF10200FFF782FABDF80230F2
:104D7800029A03FB02F20292039A03FB02F20392E5
:104D8800049A02FB03F3049302A800F079FA0020C6
:104D9800C4E7000010B50020FFF748FDC4B2782032
:104DA800FFF7D2FC0444E4B27820FFF78FFA0444FA
:104DB800E4B26420FFF778FC0444E4B200F026F97A
:104DC8000444E4B20F48FEF739FC00F02BF9044420
:104DD800E4B240F2731000F0EDFC0444E4B2642045
:104DE80000F0CAFA0444E4B20120FFF7B7FE044415
:104DF800E4B2FFF78AFF044414F0FF0F14BF012048
:104E0800002010BD0C0000202DE9F04F91B0804625
:104E18000C4602920DF1270301930DF12E03009326
:104E28000AAB05AA0CA90EA800F0D0FD002840F096
:104E3800C680BDF92E3013F4807F01D10120BFE078
:104E48000598FBF7A5FE4FF04251FBF7F5FE8246A9
:104E58000698FBF79DFE4FF04251FBF7EDFE064624
:104E68000798FBF795FE4FF04251FBF7E5FE054624
:104E78000898FBF78DFE4FF04251FBF7DDFE074621
:104E88004FF040413046FBF7D7FE03903946FBF719
:104E9800D3FE814651465046FBF7C6FD8346294658
:104EA800FBF7CAFE01464846FBF7BEFDFBF7FCFAD6
:104EB80008F01AF944A3D3E90023FBF74DFBFBF7ED
:104EC8005DFDC8F8000029462846FBF7ADFD814680
:104ED8003946FBF7B1FE804631465846FBF7ACFE33
:104EE80001464046FBF7A0FD834631460398FBF791
:104EF800A3FE804629464846FBF79EFE01464046EB
:104F0800FBF790FD4FF07E51FBF78EFDFBF7CCFAD7
:104F1800804689465846FBF7C7FA42464B4608F092
:104F28000BF929A3D3E90023FBF716FBFBF726FDB2
:104F3800206029463046FBF77FFE04463946504636
:104F4800FBF77AFE01462046FBF76EFD0146FBF7AC
:104F58006BFD804651465046FBF76EFE04463146CF
:104F68003046FBF769FE01462046FBF75DFD044627
:104F780029462846FBF760FE01462046FBF752FD0E
:104F8800044639463846FBF757FE01462046FBF7EC
:104F980049FDFBF789FA04460D464046FBF784FABB
:104FA80022462B4608F0C8F807A3D3E90023FBF7ED
:104FB800D3FAFBF7E3FC029B1860002000E0012015
:104FC80011B0BDE8F08F00BF6666666666A64C4005
:104FD80038B50446C578437813F0010F09D005F0B9
:104FE8003F00C00805F007010131074B1B6803B1FA
:104FF8009847637813F0080F04D0034B5B680BB134
:10500800A8099847002038BDD408002008B5C8234F
:105018004FF48062024940F6F630FFF745FD08BDBF
:105028008CEB000810B586B004464C4B1B68ADF8F5
:105038000C301B0C8DF80E30494B1B68ADF808304E
:105048001B0C8DF80A30474B1B68ADF804301B0C5D
:105058008DF80630444B1B68ADF800301B0C8DF8FA
:10506800023000F0030101F118030DEB030111F800
:105078000C3C8DF81430C0F3C10202F118030DEB9B
:10508800030212F80C3C8DF81530C0F38113183365
:105098006B4413F80C0C8DF8160011F8101C8DF8E1
:1050A800101012F8102C8DF8112013F8103C8DF800
:1050B800123005AA032140F22640FFF781FC0028A0
:1050C80040D104AA032140F22A40FFF779FC0028C6
:1050D8003BD1019BADF814301B0C8DF81630009BAA
:1050E800ADF810301B0C8DF8123014F0040F05D0F9
:1050F80037238DF8143027238DF8103014F0200F43
:1051080005D057238DF8153047238DF8113014F446
:10511800807F05D077238DF8163067238DF81230FD
:1051280005AA03214FF48860FFF74AFC80B904AA56
:10513800032140F23140FFF743FC60B90B4B1C815F
:1051480006B010BD4FF0FF30FAE74FF0FF30F7E739
:105158004FF0FF30F4E74FF0FF30F1E7B0DC000824
:10516800B4DC0008B8DC0008BCDC0008D408002067
:1051780070B584B0404B1B8903F0030250F822201D
:10518800019213F0040F01D052420192C3F3C102FD
:1051980050F82220029213F0200F01D052420292BE
:1051A800C3F3811250F82220039213F4807F01D0B8
:1051B80052420392019BD817304AA3FB023102FBEB
:1051C80000119B0F43EA810301930299CC17A1FBBD
:1051D800021002FB04008D0F45EA80050295039C2E
:1051E800E017A4FB024102FB0012A40F44EA820468
:1051F80003941A0E8DF80020C3F307428DF801209E
:10520800C3F307228DF802208DF803306A46042183
:105218004FF47470FFF7D4FB40BB2B0E8DF80030B1
:10522800C5F307438DF80130C5F307238DF8023025
:105238008DF803506A4604214FF47570FFF7C0FBE0
:10524800B8B9230E8DF80030C4F307438DF8013048
:10525800C4F307268DF802608DF803406A460421DE
:105268004FF47670FFF7ACFB04B070BD4FF0FF3021
:10527800FAE74FF0FF30F7E7D408002009E3CA0245
:1052880010B588B004460DF10600FEF7F1FFBDF831
:1052980006C04FEACC3C00BF364B1B8903F0030223
:1052A80054F82220059213F0040F01D052420592BF
:1052B800C3F3C10254F82220069213F0200F01D044
:1052C80052420692C3F3811254F82220079213F433
:1052D800807F01D0524207920599CA17A1FB0C138F
:1052E8000CFB0233890F41EA83010591069AD01716
:1052F800A2FB0C230CFB0033920F42EA83020692B6
:10530800079BDC17A3FB0C300CFB04009B0F43EA44
:1053180080030793080E8DF80800C1F307408DF845
:105328000900C1F307208DF80A008DF80B10110E43
:105338008DF80C10C2F307418DF80D10C2F3072148
:105348008DF80E108DF80F201A0E8DF81020C3F36B
:1053580007428DF81120C3F307228DF812208DF82B
:10536800133002AA0C214FF42570FFF729FB08B06F
:1053780010BD00BFD408002010B586B00446164BF7
:1053880093E8070006AB03E90700C82C1AD8C8231E
:1053980093FBF4F3013B1A0E8DF804208DF80530C9
:1053A80001AA022140F21620FFF70AFB68B903AAF6
:1053B8000C2140F6C120FFF703FB48B9074B9C813D
:1053C80006B010BD4FF0FF30FAE74FF0FF30F7E7B7
:1053D8004FF0FF30F4E700BFC0DC0008D40800201D
:1053E80070B582B0044610F0070F00F0AC80084694
:1053F800B1F5C86F00F2AA80FBF7C6FB5B49FBF763
:10540800CFFC05460DF10300FEF726FE9DF803309C
:10541800023B0E2B00F29D80DFE803F0089B2C9BDB
:105428009B9B3C9B9B9B9B9B9B9B4C004FF08D416C
:105438002846FBF701FCFBF7EBFD86B24C492846F2
:10544800FBF7FAFBFBF7E4FD80B2330A8DF8043072
:105458008DF80560030A8DF806308DF8070014F002
:10546800010F37D114F0020F48D114F0040F58D1AE
:10547800002070E04FF08C412846FBF7DDFBFBF77E
:10548800C7FD86B23B492846FBF7D6FBFBF7C0FDB4
:1054980080B2DAE74FF08B412846FBF7CDFBFBF7EC
:1054A800B7FD86B234492846FBF7C6FBFBF7B0FDCB
:1054B80080B2CAE74FF08A412846FBF7BDFBFBF7ED
:1054C800A7FD86B22D492846FBF7B6FBFBF7A0FDE2
:1054D80080B2BAE701AA02214FF4EA70FFF770FA26
:1054E80000283AD10DF1060202214FF49270FFF71D
:1054F80067FA0028B6D04FF0FF302CE001AA02214D
:105508004FF4EC70FFF75CFA50BB0DF10602022174
:105518004FF49470FFF754FA0028A6D04FF0FF30EC
:1055280019E001AA02214FF4EE70FFF749FAD0B949
:105538000DF1060202214FF49670FFF741FA50B1BF
:105548004FF0FF3007E04FF0FF3004E04FF0FF303E
:1055580001E04FF0FF3002B070BD4FF0FF30FAE7C6
:105568004FF0FF30F7E74FF0FF30F4E70000484313
:10557800000040460000C045000040450000C0440F
:1055880000B583B000238DF8073010F0010F02D06A
:1055980030238DF8073010F0020F05D09DF8073042
:1055A80043F00C038DF8073010F0040F05D09DF878
:1055B800073043F003038DF807300DF1070201218E
:1055C8004FF4A470FFF7FCF903B05DF804FB00B5D5
:1055D80083B020B10346042802D9042300E0012344
:1055E800013B8DF807300DF10702012140F24F1001
:1055F800FFF7E6F903B05DF804FB000000B583B0DF
:10560800094BA3FB0030830A8DF80430C0F38700F0
:105618008DF8050001AA02214FF4EF70FFF7D0F9C9
:1056280003B05DF804FB00BFCDCCCCCC00B583B093
:10563800094BA3FB0030830A8DF80430C0F38700C0
:105648008DF8050001AA02214FF4ED70FFF7B8F9B3
:1056580003B05DF804FB00BFCDCCCCCC00B583B063
:105668000E4B83FB0023C017C0EBA31000FB01F116
:105678000B0E8DF80430C1F307438DF80530C1F3E4
:1056880007238DF806308DF8071001AA04214FF47E
:10569800AE70FFF795F903B05DF804FBD34D6210C7
:1056A80000B583B0084BA3FB00308308800A8DF84F
:1056B80004008DF8053001AA02214FF4AD70FFF700
:1056C8007FF903B05DF804FBCDCCCCCC00B583B03A
:1056D800084BA3FB00308308800A8DF804008DF87E
:1056E800053001AA02214FF4AC70FFF769F903B045
:1056F8005DF804FBCDCCCCCC00B585B068B10D4AC3
:1057080001AB07CA03C31A7001AA09214FF49760B5
:10571800FFF756F905B05DF804FB074A01AB07CA65
:1057280003C31A7001AA09214FF49760FFF748F9DB
:10573800F0E700BFD0DC0008DCDC000800B583B06F
:10574800B0B1C0238DF80430C2238DF80530C423CE
:105758008DF80630C6238DF8073001AA042140F6DB
:105768009820FFF72DF9FEF711FB03B05DF804FB55
:105778004FF08B330193F0E700B583B0B0B120232D
:105788008DF8043028238DF8053030238DF8063045
:1057980038238DF8073001AA042140F69E20FFF730
:1057A8000FF9FEF7F3FA03B05DF804FB4FF0A333EB
:1057B8000193F0E72DE9F04184B0044602238DF807
:1057C8000430CA238DF80530E3238DF80630092309
:1057D8008DF8073001AA04216820FFF7F1F8A32308
:1057E8008DF8043014F0400800F0B080C0238DF824
:1057F8000530C8238DF80630C2238DF8073014F41D
:10580800C07500F0AB80C4238DF80830CC238DF828
:105818000930C6238DF80A30A3238DF80B308DF894
:105828000C308DF80D3001AA0A2140F6A720FFF7A9
:10583800C7F814F0030700F0998020238DF804308E
:1058480001AA012140F6B620FFF7BAF814F0200F9C
:1058580000F090800120FFF74FFFADB114F4807F76
:1058680000F08C80B2238DF804308B238DF805303E
:10587800B6238DF806309B238DF8073001AA042142
:1058880040F6A220FFF79CF814F0010F00F0838087
:10589800F8238DF8043001AA01214FF40B60FFF7BB
:1058A8008FF8FA210720FFF79BFD0720FFF768FE16
:1058B8000120FFF78CFE6420FFF7A0FE4FF4FA707A
:1058C800FFF7B4FEC8213F48FFF7C8FE2820FFF7BE
:1058D800E7FE0A20FFF7FAFE14F0020F65D0D9237D
:1058E8008DF8043001AA012140F23D70FFF768F8F5
:1058F80014F0040F5DD00120FFF720FF14F0100F03
:105908005BD00120FFF738FF2F4E44F00803738166
:10591800FEF73CFA0023B373B8F1000F01D006225A
:10592800B2731DB1284A937B0633937314F0140F96
:1059380003D0254A937B103393731FB1224A937B7C
:1059480004339373002004B0BDE8F081A3238DF8DD
:1059580005308DF806308DF8073050E7A3238DF811
:1059680008308DF809308DF80A3055E7D8238DF8BE
:10597800043065E70020FFF7BFFE6EE7B0238DF81F
:10598800043080238DF80530B4238DF80630902339
:105998008DF8073072E7D8238DF8043001AA012169
:1059A8004FF40B60FFF70CF896E7D8238DF8043016
:1059B80098E70020FFF7C2FEA0E70020FFF7DCFE13
:1059C800A2E700BF09E3CA02D40800202DE9F04786
:1059D8008CB006460F4692469846149D00232B80AD
:1059E800159A04A9734B987BFEF7A2FC002840F097
:1059F800DE8081466F4B5B8913F0140F65D09DF8EC
:105A080010209DF81100000440EA02609DF8122061
:105A180040EA02209DF813201043CAF800009DF8C0
:105A280014109DF81520120442EA01629DF8161020
:105A380042EA01229DF817100A43CAF804209DF88B
:105A480018409DF81910090441EA04619DF81A40AC
:105A580041EA04219DF81B402143CAF808109DF82B
:105A68001CC09DF81D40240444EA0C649DF81EC027
:105A780044EA0C249DF81FC044EA0C04CAF80C4000
:105A8800001400904FEA224CCDF804C0091402918A
:105A9800221403920CFB0CFC00FB00C001FB01016B
:105AA80002FB021202F17142B2F1007F06D8B5F989
:105AB800002042F480722A80102207E0FEF766F97F
:105AC80000232B804FF0FF3968E0002213F0400FCD
